{
	"VotacionUD/votacionUD.sol": {
		"sistemaVotacion": {
			"abi": [
				{
					"inputs": [
						{
							"internalType": "bytes32[]",
							"name": "nombresCandidatos",
							"type": "bytes32[]"
						}
					],
					"stateMutability": "nonpayable",
					"type": "constructor"
				},
				{
					"inputs": [
						{
							"internalType": "uint256",
							"name": "proposal",
							"type": "uint256"
						}
					],
					"name": "Votar",
					"outputs": [],
					"stateMutability": "nonpayable",
					"type": "function"
				},
				{
					"inputs": [],
					"name": "adminVotacion",
					"outputs": [
						{
							"internalType": "address",
							"name": "",
							"type": "address"
						}
					],
					"stateMutability": "view",
					"type": "function"
				},
				{
					"inputs": [],
					"name": "candidatoGanador",
					"outputs": [
						{
							"internalType": "uint256",
							"name": "candidatoGanador_",
							"type": "uint256"
						}
					],
					"stateMutability": "view",
					"type": "function"
				},
				{
					"inputs": [
						{
							"internalType": "uint256",
							"name": "",
							"type": "uint256"
						}
					],
					"name": "candidatos",
					"outputs": [
						{
							"internalType": "bytes32",
							"name": "nombreCandidato",
							"type": "bytes32"
						},
						{
							"internalType": "uint256",
							"name": "contadorVotos",
							"type": "uint256"
						}
					],
					"stateMutability": "view",
					"type": "function"
				},
				{
					"inputs": [
						{
							"internalType": "address",
							"name": "voter",
							"type": "address"
						}
					],
					"name": "darDerechoAVotar",
					"outputs": [],
					"stateMutability": "nonpayable",
					"type": "function"
				},
				{
					"inputs": [
						{
							"internalType": "address",
							"name": "to",
							"type": "address"
						}
					],
					"name": "delegado",
					"outputs": [],
					"stateMutability": "nonpayable",
					"type": "function"
				},
				{
					"inputs": [],
					"name": "nomCandidatoGanador",
					"outputs": [
						{
							"internalType": "bytes32",
							"name": "nomCandidatoGanador_",
							"type": "bytes32"
						}
					],
					"stateMutability": "view",
					"type": "function"
				},
				{
					"inputs": [
						{
							"internalType": "address",
							"name": "",
							"type": "address"
						}
					],
					"name": "votantes",
					"outputs": [
						{
							"internalType": "uint256",
							"name": "pesoVoto",
							"type": "uint256"
						},
						{
							"internalType": "bool",
							"name": "isVoto",
							"type": "bool"
						},
						{
							"internalType": "address",
							"name": "delegado",
							"type": "address"
						},
						{
							"internalType": "uint256",
							"name": "indiceVoto",
							"type": "uint256"
						}
					],
					"stateMutability": "view",
					"type": "function"
				}
			],
			"devdoc": {
				"kind": "dev",
				"methods": {},
				"title": "Sistema de votaci칩n.",
				"version": 1
			},
			"evm": {
				"assembly": "    /* \"VotacionUD/votacionUD.sol\":108:4551  contract sistemaVotacion {... */\n  mstore(0x40, 0x80)\n    /* \"VotacionUD/votacionUD.sol\":672:1061  constructor(bytes32[] memory nombresCandidatos) {... */\n  callvalue\n  dup1\n  iszero\n  tag_1\n  jumpi\n  0x00\n  dup1\n  revert\ntag_1:\n  pop\n  mload(0x40)\n  sub(codesize, bytecodeSize)\n  dup1\n  bytecodeSize\n  dup4\n  codecopy\n  dup2\n  dup2\n  add\n  0x40\n  mstore\n  dup2\n  add\n  swap1\n  tag_2\n  swap2\n  swap1\n  tag_3\n  jump\t// in\ntag_2:\n    /* \"VotacionUD/votacionUD.sol\":747:757  msg.sender */\n  caller\n    /* \"VotacionUD/votacionUD.sol\":731:744  adminVotacion */\n  0x00\n  dup1\n    /* \"VotacionUD/votacionUD.sol\":731:757  adminVotacion = msg.sender */\n  0x0100\n  exp\n  dup2\n  sload\n  dup2\n  0xffffffffffffffffffffffffffffffffffffffff\n  mul\n  not\n  and\n  swap1\n  dup4\n  0xffffffffffffffffffffffffffffffffffffffff\n  and\n  mul\n  or\n  swap1\n  sstore\n  pop\n    /* \"VotacionUD/votacionUD.sol\":803:804  1 */\n  0x01\n    /* \"VotacionUD/votacionUD.sol\":768:776  votantes */\n  dup1\n    /* \"VotacionUD/votacionUD.sol\":768:791  votantes[adminVotacion] */\n  0x00\n    /* \"VotacionUD/votacionUD.sol\":777:790  adminVotacion */\n  dup1\n  0x00\n  swap1\n  sload\n  swap1\n  0x0100\n  exp\n  swap1\n  div\n  0xffffffffffffffffffffffffffffffffffffffff\n  and\n    /* \"VotacionUD/votacionUD.sol\":768:791  votantes[adminVotacion] */\n  0xffffffffffffffffffffffffffffffffffffffff\n  and\n  0xffffffffffffffffffffffffffffffffffffffff\n  and\n  dup2\n  mstore\n  0x20\n  add\n  swap1\n  dup2\n  mstore\n  0x20\n  add\n  0x00\n  keccak256\n    /* \"VotacionUD/votacionUD.sol\":768:800  votantes[adminVotacion].pesoVoto */\n  0x00\n  add\n    /* \"VotacionUD/votacionUD.sol\":768:804  votantes[adminVotacion].pesoVoto = 1 */\n  dup2\n  swap1\n  sstore\n  pop\n    /* \"VotacionUD/votacionUD.sol\":832:838  uint i */\n  0x00\n    /* \"VotacionUD/votacionUD.sol\":827:1054  for (uint i = 0; i < nombresCandidatos.length; i++) {... */\ntag_6:\n    /* \"VotacionUD/votacionUD.sol\":848:865  nombresCandidatos */\n  dup2\n    /* \"VotacionUD/votacionUD.sol\":848:872  nombresCandidatos.length */\n  mload\n    /* \"VotacionUD/votacionUD.sol\":844:845  i */\n  dup2\n    /* \"VotacionUD/votacionUD.sol\":844:872  i < nombresCandidatos.length */\n  lt\n    /* \"VotacionUD/votacionUD.sol\":827:1054  for (uint i = 0; i < nombresCandidatos.length; i++) {... */\n  iszero\n  tag_7\n  jumpi\n    /* \"VotacionUD/votacionUD.sol\":908:918  candidatos */\n  0x02\n    /* \"VotacionUD/votacionUD.sol\":924:1041  Candidato({... */\n  mload(0x40)\n  dup1\n  0x40\n  add\n  0x40\n  mstore\n  dup1\n    /* \"VotacionUD/votacionUD.sol\":970:987  nombresCandidatos */\n  dup5\n    /* \"VotacionUD/votacionUD.sol\":988:989  i */\n  dup5\n    /* \"VotacionUD/votacionUD.sol\":970:990  nombresCandidatos[i] */\n  dup2\n  mload\n  dup2\n  lt\n  tag_9\n  jumpi\n  tag_10\n  tag_11\n  jump\t// in\ntag_10:\ntag_9:\n  0x20\n  mul\n  0x20\n  add\n  add\n  mload\n    /* \"VotacionUD/votacionUD.sol\":924:1041  Candidato({... */\n  dup2\n  mstore\n  0x20\n  add\n    /* \"VotacionUD/votacionUD.sol\":1024:1025  0 */\n  0x00\n    /* \"VotacionUD/votacionUD.sol\":924:1041  Candidato({... */\n  dup2\n  mstore\n  pop\n    /* \"VotacionUD/votacionUD.sol\":908:1042  candidatos.push(Candidato({... */\n  swap1\n  dup1\n  0x01\n  dup2\n  sload\n  add\n  dup1\n  dup3\n  sstore\n  dup1\n  swap2\n  pop\n  pop\n  0x01\n  swap1\n  sub\n  swap1\n  0x00\n  mstore\n  keccak256(0x00, 0x20)\n  swap1\n  0x02\n  mul\n  add\n  0x00\n  swap1\n  swap2\n  swap1\n  swap2\n  swap1\n  swap2\n  pop\n  0x00\n  dup3\n  add\n  mload\n  dup2\n  0x00\n  add\n  sstore\n  0x20\n  dup3\n  add\n  mload\n  dup2\n  0x01\n  add\n  sstore\n  pop\n  pop\n    /* \"VotacionUD/votacionUD.sol\":874:877  i++ */\n  dup1\n  dup1\n  tag_13\n  swap1\n  tag_14\n  jump\t// in\ntag_13:\n  swap2\n  pop\n  pop\n    /* \"VotacionUD/votacionUD.sol\":827:1054  for (uint i = 0; i < nombresCandidatos.length; i++) {... */\n  jump(tag_6)\ntag_7:\n  pop\n    /* \"VotacionUD/votacionUD.sol\":672:1061  constructor(bytes32[] memory nombresCandidatos) {... */\n  pop\n    /* \"VotacionUD/votacionUD.sol\":108:4551  contract sistemaVotacion {... */\n  jump(tag_15)\n    /* \"#utility.yul\":7:82   */\ntag_16:\n    /* \"#utility.yul\":40:46   */\n  0x00\n    /* \"#utility.yul\":73:75   */\n  0x40\n    /* \"#utility.yul\":67:76   */\n  mload\n    /* \"#utility.yul\":57:76   */\n  swap1\n  pop\n    /* \"#utility.yul\":7:82   */\n  swap1\n  jump\t// out\n    /* \"#utility.yul\":88:205   */\ntag_17:\n    /* \"#utility.yul\":197:198   */\n  0x00\n    /* \"#utility.yul\":194:195   */\n  dup1\n    /* \"#utility.yul\":187:199   */\n  revert\n    /* \"#utility.yul\":211:328   */\ntag_18:\n    /* \"#utility.yul\":320:321   */\n  0x00\n    /* \"#utility.yul\":317:318   */\n  dup1\n    /* \"#utility.yul\":310:322   */\n  revert\n    /* \"#utility.yul\":334:451   */\ntag_19:\n    /* \"#utility.yul\":443:444   */\n  0x00\n    /* \"#utility.yul\":440:441   */\n  dup1\n    /* \"#utility.yul\":433:445   */\n  revert\n    /* \"#utility.yul\":457:559   */\ntag_20:\n    /* \"#utility.yul\":498:504   */\n  0x00\n    /* \"#utility.yul\":549:551   */\n  0x1f\n    /* \"#utility.yul\":545:552   */\n  not\n    /* \"#utility.yul\":540:542   */\n  0x1f\n    /* \"#utility.yul\":533:538   */\n  dup4\n    /* \"#utility.yul\":529:543   */\n  add\n    /* \"#utility.yul\":525:553   */\n  and\n    /* \"#utility.yul\":515:553   */\n  swap1\n  pop\n    /* \"#utility.yul\":457:559   */\n  swap2\n  swap1\n  pop\n  jump\t// out\n    /* \"#utility.yul\":565:745   */\ntag_21:\n    /* \"#utility.yul\":613:690   */\n  0x4e487b7100000000000000000000000000000000000000000000000000000000\n    /* \"#utility.yul\":610:611   */\n  0x00\n    /* \"#utility.yul\":603:691   */\n  mstore\n    /* \"#utility.yul\":710:714   */\n  0x41\n    /* \"#utility.yul\":707:708   */\n  0x04\n    /* \"#utility.yul\":700:715   */\n  mstore\n    /* \"#utility.yul\":734:738   */\n  0x24\n    /* \"#utility.yul\":731:732   */\n  0x00\n    /* \"#utility.yul\":724:739   */\n  revert\n    /* \"#utility.yul\":751:1032   */\ntag_22:\n    /* \"#utility.yul\":834:861   */\n  tag_41\n    /* \"#utility.yul\":856:860   */\n  dup3\n    /* \"#utility.yul\":834:861   */\n  tag_20\n  jump\t// in\ntag_41:\n    /* \"#utility.yul\":826:832   */\n  dup2\n    /* \"#utility.yul\":822:862   */\n  add\n    /* \"#utility.yul\":964:970   */\n  dup2\n    /* \"#utility.yul\":952:962   */\n  dup2\n    /* \"#utility.yul\":949:971   */\n  lt\n    /* \"#utility.yul\":928:946   */\n  0xffffffffffffffff\n    /* \"#utility.yul\":916:926   */\n  dup3\n    /* \"#utility.yul\":913:947   */\n  gt\n    /* \"#utility.yul\":910:972   */\n  or\n    /* \"#utility.yul\":907:995   */\n  iszero\n  tag_42\n  jumpi\n    /* \"#utility.yul\":975:993   */\n  tag_43\n  tag_21\n  jump\t// in\ntag_43:\n    /* \"#utility.yul\":907:995   */\ntag_42:\n    /* \"#utility.yul\":1015:1025   */\n  dup1\n    /* \"#utility.yul\":1011:1013   */\n  0x40\n    /* \"#utility.yul\":1004:1026   */\n  mstore\n    /* \"#utility.yul\":794:1032   */\n  pop\n    /* \"#utility.yul\":751:1032   */\n  pop\n  pop\n  jump\t// out\n    /* \"#utility.yul\":1038:1167   */\ntag_23:\n    /* \"#utility.yul\":1072:1078   */\n  0x00\n    /* \"#utility.yul\":1099:1119   */\n  tag_45\n  tag_16\n  jump\t// in\ntag_45:\n    /* \"#utility.yul\":1089:1119   */\n  swap1\n  pop\n    /* \"#utility.yul\":1128:1161   */\n  tag_46\n    /* \"#utility.yul\":1156:1160   */\n  dup3\n    /* \"#utility.yul\":1148:1154   */\n  dup3\n    /* \"#utility.yul\":1128:1161   */\n  tag_22\n  jump\t// in\ntag_46:\n    /* \"#utility.yul\":1038:1167   */\n  swap2\n  swap1\n  pop\n  jump\t// out\n    /* \"#utility.yul\":1173:1484   */\ntag_24:\n    /* \"#utility.yul\":1250:1254   */\n  0x00\n    /* \"#utility.yul\":1340:1358   */\n  0xffffffffffffffff\n    /* \"#utility.yul\":1332:1338   */\n  dup3\n    /* \"#utility.yul\":1329:1359   */\n  gt\n    /* \"#utility.yul\":1326:1382   */\n  iszero\n  tag_48\n  jumpi\n    /* \"#utility.yul\":1362:1380   */\n  tag_49\n  tag_21\n  jump\t// in\ntag_49:\n    /* \"#utility.yul\":1326:1382   */\ntag_48:\n    /* \"#utility.yul\":1412:1416   */\n  0x20\n    /* \"#utility.yul\":1404:1410   */\n  dup3\n    /* \"#utility.yul\":1400:1417   */\n  mul\n    /* \"#utility.yul\":1392:1417   */\n  swap1\n  pop\n    /* \"#utility.yul\":1472:1476   */\n  0x20\n    /* \"#utility.yul\":1466:1470   */\n  dup2\n    /* \"#utility.yul\":1462:1477   */\n  add\n    /* \"#utility.yul\":1454:1477   */\n  swap1\n  pop\n    /* \"#utility.yul\":1173:1484   */\n  swap2\n  swap1\n  pop\n  jump\t// out\n    /* \"#utility.yul\":1490:1607   */\ntag_25:\n    /* \"#utility.yul\":1599:1600   */\n  0x00\n    /* \"#utility.yul\":1596:1597   */\n  dup1\n    /* \"#utility.yul\":1589:1601   */\n  revert\n    /* \"#utility.yul\":1613:1690   */\ntag_26:\n    /* \"#utility.yul\":1650:1657   */\n  0x00\n    /* \"#utility.yul\":1679:1684   */\n  dup2\n    /* \"#utility.yul\":1668:1684   */\n  swap1\n  pop\n    /* \"#utility.yul\":1613:1690   */\n  swap2\n  swap1\n  pop\n  jump\t// out\n    /* \"#utility.yul\":1696:1818   */\ntag_27:\n    /* \"#utility.yul\":1769:1793   */\n  tag_53\n    /* \"#utility.yul\":1787:1792   */\n  dup2\n    /* \"#utility.yul\":1769:1793   */\n  tag_26\n  jump\t// in\ntag_53:\n    /* \"#utility.yul\":1762:1767   */\n  dup2\n    /* \"#utility.yul\":1759:1794   */\n  eq\n    /* \"#utility.yul\":1749:1812   */\n  tag_54\n  jumpi\n    /* \"#utility.yul\":1808:1809   */\n  0x00\n    /* \"#utility.yul\":1805:1806   */\n  dup1\n    /* \"#utility.yul\":1798:1810   */\n  revert\n    /* \"#utility.yul\":1749:1812   */\ntag_54:\n    /* \"#utility.yul\":1696:1818   */\n  pop\n  jump\t// out\n    /* \"#utility.yul\":1824:1967   */\ntag_28:\n    /* \"#utility.yul\":1881:1886   */\n  0x00\n    /* \"#utility.yul\":1912:1918   */\n  dup2\n    /* \"#utility.yul\":1906:1919   */\n  mload\n    /* \"#utility.yul\":1897:1919   */\n  swap1\n  pop\n    /* \"#utility.yul\":1928:1961   */\n  tag_56\n    /* \"#utility.yul\":1955:1960   */\n  dup2\n    /* \"#utility.yul\":1928:1961   */\n  tag_27\n  jump\t// in\ntag_56:\n    /* \"#utility.yul\":1824:1967   */\n  swap3\n  swap2\n  pop\n  pop\n  jump\t// out\n    /* \"#utility.yul\":1990:2722   */\ntag_29:\n    /* \"#utility.yul\":2097:2102   */\n  0x00\n    /* \"#utility.yul\":2122:2203   */\n  tag_58\n    /* \"#utility.yul\":2138:2202   */\n  tag_59\n    /* \"#utility.yul\":2195:2201   */\n  dup5\n    /* \"#utility.yul\":2138:2202   */\n  tag_24\n  jump\t// in\ntag_59:\n    /* \"#utility.yul\":2122:2203   */\n  tag_23\n  jump\t// in\ntag_58:\n    /* \"#utility.yul\":2113:2203   */\n  swap1\n  pop\n    /* \"#utility.yul\":2223:2228   */\n  dup1\n    /* \"#utility.yul\":2252:2258   */\n  dup4\n    /* \"#utility.yul\":2245:2250   */\n  dup3\n    /* \"#utility.yul\":2238:2259   */\n  mstore\n    /* \"#utility.yul\":2286:2290   */\n  0x20\n    /* \"#utility.yul\":2279:2284   */\n  dup3\n    /* \"#utility.yul\":2275:2291   */\n  add\n    /* \"#utility.yul\":2268:2291   */\n  swap1\n  pop\n    /* \"#utility.yul\":2339:2343   */\n  0x20\n    /* \"#utility.yul\":2331:2337   */\n  dup5\n    /* \"#utility.yul\":2327:2344   */\n  mul\n    /* \"#utility.yul\":2319:2325   */\n  dup4\n    /* \"#utility.yul\":2315:2345   */\n  add\n    /* \"#utility.yul\":2368:2371   */\n  dup6\n    /* \"#utility.yul\":2360:2366   */\n  dup2\n    /* \"#utility.yul\":2357:2372   */\n  gt\n    /* \"#utility.yul\":2354:2476   */\n  iszero\n  tag_60\n  jumpi\n    /* \"#utility.yul\":2387:2466   */\n  tag_61\n  tag_25\n  jump\t// in\ntag_61:\n    /* \"#utility.yul\":2354:2476   */\ntag_60:\n    /* \"#utility.yul\":2502:2508   */\n  dup4\n    /* \"#utility.yul\":2485:2716   */\ntag_62:\n    /* \"#utility.yul\":2519:2525   */\n  dup2\n    /* \"#utility.yul\":2514:2517   */\n  dup2\n    /* \"#utility.yul\":2511:2526   */\n  lt\n    /* \"#utility.yul\":2485:2716   */\n  iszero\n  tag_64\n  jumpi\n    /* \"#utility.yul\":2594:2597   */\n  dup1\n    /* \"#utility.yul\":2623:2671   */\n  tag_65\n    /* \"#utility.yul\":2667:2670   */\n  dup9\n    /* \"#utility.yul\":2655:2665   */\n  dup3\n    /* \"#utility.yul\":2623:2671   */\n  tag_28\n  jump\t// in\ntag_65:\n    /* \"#utility.yul\":2618:2621   */\n  dup5\n    /* \"#utility.yul\":2611:2672   */\n  mstore\n    /* \"#utility.yul\":2701:2705   */\n  0x20\n    /* \"#utility.yul\":2696:2699   */\n  dup5\n    /* \"#utility.yul\":2692:2706   */\n  add\n    /* \"#utility.yul\":2685:2706   */\n  swap4\n  pop\n    /* \"#utility.yul\":2561:2716   */\n  pop\n    /* \"#utility.yul\":2545:2549   */\n  0x20\n    /* \"#utility.yul\":2540:2543   */\n  dup2\n    /* \"#utility.yul\":2536:2550   */\n  add\n    /* \"#utility.yul\":2529:2550   */\n  swap1\n  pop\n    /* \"#utility.yul\":2485:2716   */\n  jump(tag_62)\ntag_64:\n    /* \"#utility.yul\":2489:2510   */\n  pop\n    /* \"#utility.yul\":2103:2722   */\n  pop\n  pop\n    /* \"#utility.yul\":1990:2722   */\n  swap4\n  swap3\n  pop\n  pop\n  pop\n  jump\t// out\n    /* \"#utility.yul\":2745:3130   */\ntag_30:\n    /* \"#utility.yul\":2827:2832   */\n  0x00\n    /* \"#utility.yul\":2876:2879   */\n  dup3\n    /* \"#utility.yul\":2869:2873   */\n  0x1f\n    /* \"#utility.yul\":2861:2867   */\n  dup4\n    /* \"#utility.yul\":2857:2874   */\n  add\n    /* \"#utility.yul\":2853:2880   */\n  slt\n    /* \"#utility.yul\":2843:2965   */\n  tag_67\n  jumpi\n    /* \"#utility.yul\":2884:2963   */\n  tag_68\n  tag_19\n  jump\t// in\ntag_68:\n    /* \"#utility.yul\":2843:2965   */\ntag_67:\n    /* \"#utility.yul\":2994:3000   */\n  dup2\n    /* \"#utility.yul\":2988:3001   */\n  mload\n    /* \"#utility.yul\":3019:3124   */\n  tag_69\n    /* \"#utility.yul\":3120:3123   */\n  dup5\n    /* \"#utility.yul\":3112:3118   */\n  dup3\n    /* \"#utility.yul\":3105:3109   */\n  0x20\n    /* \"#utility.yul\":3097:3103   */\n  dup7\n    /* \"#utility.yul\":3093:3110   */\n  add\n    /* \"#utility.yul\":3019:3124   */\n  tag_29\n  jump\t// in\ntag_69:\n    /* \"#utility.yul\":3010:3124   */\n  swap2\n  pop\n    /* \"#utility.yul\":2833:3130   */\n  pop\n    /* \"#utility.yul\":2745:3130   */\n  swap3\n  swap2\n  pop\n  pop\n  jump\t// out\n    /* \"#utility.yul\":3136:3690   */\ntag_3:\n    /* \"#utility.yul\":3231:3237   */\n  0x00\n    /* \"#utility.yul\":3280:3282   */\n  0x20\n    /* \"#utility.yul\":3268:3277   */\n  dup3\n    /* \"#utility.yul\":3259:3266   */\n  dup5\n    /* \"#utility.yul\":3255:3278   */\n  sub\n    /* \"#utility.yul\":3251:3283   */\n  slt\n    /* \"#utility.yul\":3248:3367   */\n  iszero\n  tag_71\n  jumpi\n    /* \"#utility.yul\":3286:3365   */\n  tag_72\n  tag_17\n  jump\t// in\ntag_72:\n    /* \"#utility.yul\":3248:3367   */\ntag_71:\n    /* \"#utility.yul\":3427:3428   */\n  0x00\n    /* \"#utility.yul\":3416:3425   */\n  dup3\n    /* \"#utility.yul\":3412:3429   */\n  add\n    /* \"#utility.yul\":3406:3430   */\n  mload\n    /* \"#utility.yul\":3457:3475   */\n  0xffffffffffffffff\n    /* \"#utility.yul\":3449:3455   */\n  dup2\n    /* \"#utility.yul\":3446:3476   */\n  gt\n    /* \"#utility.yul\":3443:3560   */\n  iszero\n  tag_73\n  jumpi\n    /* \"#utility.yul\":3479:3558   */\n  tag_74\n  tag_18\n  jump\t// in\ntag_74:\n    /* \"#utility.yul\":3443:3560   */\ntag_73:\n    /* \"#utility.yul\":3584:3673   */\n  tag_75\n    /* \"#utility.yul\":3665:3672   */\n  dup5\n    /* \"#utility.yul\":3656:3662   */\n  dup3\n    /* \"#utility.yul\":3645:3654   */\n  dup6\n    /* \"#utility.yul\":3641:3663   */\n  add\n    /* \"#utility.yul\":3584:3673   */\n  tag_30\n  jump\t// in\ntag_75:\n    /* \"#utility.yul\":3574:3673   */\n  swap2\n  pop\n    /* \"#utility.yul\":3377:3683   */\n  pop\n    /* \"#utility.yul\":3136:3690   */\n  swap3\n  swap2\n  pop\n  pop\n  jump\t// out\n    /* \"#utility.yul\":3696:3876   */\ntag_11:\n    /* \"#utility.yul\":3744:3821   */\n  0x4e487b7100000000000000000000000000000000000000000000000000000000\n    /* \"#utility.yul\":3741:3742   */\n  0x00\n    /* \"#utility.yul\":3734:3822   */\n  mstore\n    /* \"#utility.yul\":3841:3845   */\n  0x32\n    /* \"#utility.yul\":3838:3839   */\n  0x04\n    /* \"#utility.yul\":3831:3846   */\n  mstore\n    /* \"#utility.yul\":3865:3869   */\n  0x24\n    /* \"#utility.yul\":3862:3863   */\n  0x00\n    /* \"#utility.yul\":3855:3870   */\n  revert\n    /* \"#utility.yul\":3882:4062   */\ntag_31:\n    /* \"#utility.yul\":3930:4007   */\n  0x4e487b7100000000000000000000000000000000000000000000000000000000\n    /* \"#utility.yul\":3927:3928   */\n  0x00\n    /* \"#utility.yul\":3920:4008   */\n  mstore\n    /* \"#utility.yul\":4027:4031   */\n  0x11\n    /* \"#utility.yul\":4024:4025   */\n  0x04\n    /* \"#utility.yul\":4017:4032   */\n  mstore\n    /* \"#utility.yul\":4051:4055   */\n  0x24\n    /* \"#utility.yul\":4048:4049   */\n  0x00\n    /* \"#utility.yul\":4041:4056   */\n  revert\n    /* \"#utility.yul\":4068:4145   */\ntag_32:\n    /* \"#utility.yul\":4105:4112   */\n  0x00\n    /* \"#utility.yul\":4134:4139   */\n  dup2\n    /* \"#utility.yul\":4123:4139   */\n  swap1\n  pop\n    /* \"#utility.yul\":4068:4145   */\n  swap2\n  swap1\n  pop\n  jump\t// out\n    /* \"#utility.yul\":4151:4384   */\ntag_14:\n    /* \"#utility.yul\":4190:4193   */\n  0x00\n    /* \"#utility.yul\":4213:4237   */\n  tag_80\n    /* \"#utility.yul\":4231:4236   */\n  dup3\n    /* \"#utility.yul\":4213:4237   */\n  tag_32\n  jump\t// in\ntag_80:\n    /* \"#utility.yul\":4204:4237   */\n  swap2\n  pop\n    /* \"#utility.yul\":4259:4325   */\n  0xffffffffffffffffffffffffffffffffffffffffffffffffffffffffffffffff\n    /* \"#utility.yul\":4252:4257   */\n  dup3\n    /* \"#utility.yul\":4249:4326   */\n  sub\n    /* \"#utility.yul\":4246:4349   */\n  tag_81\n  jumpi\n    /* \"#utility.yul\":4329:4347   */\n  tag_82\n  tag_31\n  jump\t// in\ntag_82:\n    /* \"#utility.yul\":4246:4349   */\ntag_81:\n    /* \"#utility.yul\":4376:4377   */\n  0x01\n    /* \"#utility.yul\":4369:4374   */\n  dup3\n    /* \"#utility.yul\":4365:4378   */\n  add\n    /* \"#utility.yul\":4358:4378   */\n  swap1\n  pop\n    /* \"#utility.yul\":4151:4384   */\n  swap2\n  swap1\n  pop\n  jump\t// out\n    /* \"VotacionUD/votacionUD.sol\":108:4551  contract sistemaVotacion {... */\ntag_15:\n  dataSize(sub_0)\n  dup1\n  dataOffset(sub_0)\n  0x00\n  codecopy\n  0x00\n  return\nstop\n\nsub_0: assembly {\n        /* \"VotacionUD/votacionUD.sol\":108:4551  contract sistemaVotacion {... */\n      mstore(0x40, 0x80)\n      callvalue\n      dup1\n      iszero\n      tag_1\n      jumpi\n      0x00\n      dup1\n      revert\n    tag_1:\n      pop\n      jumpi(tag_2, lt(calldatasize, 0x04))\n      shr(0xe0, calldataload(0x00))\n      dup1\n      0xa92284d0\n      gt\n      tag_11\n      jumpi\n      dup1\n      0xa92284d0\n      eq\n      tag_7\n      jumpi\n      dup1\n      0xbf475ec2\n      eq\n      tag_8\n      jumpi\n      dup1\n      0xd24b9953\n      eq\n      tag_9\n      jumpi\n      dup1\n      0xf06e9dbf\n      eq\n      tag_10\n      jumpi\n      jump(tag_2)\n    tag_11:\n      dup1\n      0x28ddfd97\n      eq\n      tag_3\n      jumpi\n      dup1\n      0x3aa0b60f\n      eq\n      tag_4\n      jumpi\n      dup1\n      0x5792febf\n      eq\n      tag_5\n      jumpi\n      dup1\n      0x8f023f85\n      eq\n      tag_6\n      jumpi\n    tag_2:\n      0x00\n      dup1\n      revert\n        /* \"VotacionUD/votacionUD.sol\":4358:4548  function nomCandidatoGanador() external view... */\n    tag_3:\n      tag_12\n      tag_13\n      jump\t// in\n    tag_12:\n      mload(0x40)\n      tag_14\n      swap2\n      swap1\n      tag_15\n      jump\t// in\n    tag_14:\n      mload(0x40)\n      dup1\n      swap2\n      sub\n      swap1\n      return\n        /* \"VotacionUD/votacionUD.sol\":1071:1550  function darDerechoAVotar(address voter) external {... */\n    tag_4:\n      tag_16\n      0x04\n      dup1\n      calldatasize\n      sub\n      dup2\n      add\n      swap1\n      tag_17\n      swap2\n      swap1\n      tag_18\n      jump\t// in\n    tag_17:\n      tag_19\n      jump\t// in\n    tag_16:\n      stop\n        /* \"VotacionUD/votacionUD.sol\":3838:4227  function candidatoGanador() public view... */\n    tag_5:\n      tag_20\n      tag_21\n      jump\t// in\n    tag_20:\n      mload(0x40)\n      tag_22\n      swap2\n      swap1\n      tag_23\n      jump\t// in\n    tag_22:\n      mload(0x40)\n      dup1\n      swap2\n      sub\n      swap1\n      return\n        /* \"VotacionUD/votacionUD.sol\":548:577  Candidato[] public candidatos */\n    tag_6:\n      tag_24\n      0x04\n      dup1\n      calldatasize\n      sub\n      dup2\n      add\n      swap1\n      tag_25\n      swap2\n      swap1\n      tag_26\n      jump\t// in\n    tag_25:\n      tag_27\n      jump\t// in\n    tag_24:\n      mload(0x40)\n      tag_28\n      swap3\n      swap2\n      swap1\n      tag_29\n      jump\t// in\n    tag_28:\n      mload(0x40)\n      dup1\n      swap2\n      sub\n      swap1\n      return\n        /* \"VotacionUD/votacionUD.sol\":455:498  mapping(address => Votante) public votantes */\n    tag_7:\n      tag_30\n      0x04\n      dup1\n      calldatasize\n      sub\n      dup2\n      add\n      swap1\n      tag_31\n      swap2\n      swap1\n      tag_18\n      jump\t// in\n    tag_31:\n      tag_32\n      jump\t// in\n    tag_30:\n      mload(0x40)\n      tag_33\n      swap5\n      swap4\n      swap3\n      swap2\n      swap1\n      tag_34\n      jump\t// in\n    tag_33:\n      mload(0x40)\n      dup1\n      swap2\n      sub\n      swap1\n      return\n        /* \"VotacionUD/votacionUD.sol\":412:440  address public adminVotacion */\n    tag_8:\n      tag_35\n      tag_36\n      jump\t// in\n    tag_35:\n      mload(0x40)\n      tag_37\n      swap2\n      swap1\n      tag_38\n      jump\t// in\n    tag_37:\n      mload(0x40)\n      dup1\n      swap2\n      sub\n      swap1\n      return\n        /* \"VotacionUD/votacionUD.sol\":3379:3743  function Votar(uint proposal) external {... */\n    tag_9:\n      tag_39\n      0x04\n      dup1\n      calldatasize\n      sub\n      dup2\n      add\n      swap1\n      tag_40\n      swap2\n      swap1\n      tag_26\n      jump\t// in\n    tag_40:\n      tag_41\n      jump\t// in\n    tag_39:\n      stop\n        /* \"VotacionUD/votacionUD.sol\":1611:3323  function delegado(address to) external {... */\n    tag_10:\n      tag_42\n      0x04\n      dup1\n      calldatasize\n      sub\n      dup2\n      add\n      swap1\n      tag_43\n      swap2\n      swap1\n      tag_18\n      jump\t// in\n    tag_43:\n      tag_44\n      jump\t// in\n    tag_42:\n      stop\n        /* \"VotacionUD/votacionUD.sol\":4358:4548  function nomCandidatoGanador() external view... */\n    tag_13:\n        /* \"VotacionUD/votacionUD.sol\":4425:4453  bytes32 nomCandidatoGanador_ */\n      0x00\n        /* \"VotacionUD/votacionUD.sol\":4494:4504  candidatos */\n      0x02\n        /* \"VotacionUD/votacionUD.sol\":4505:4523  candidatoGanador() */\n      tag_46\n        /* \"VotacionUD/votacionUD.sol\":4505:4521  candidatoGanador */\n      tag_21\n        /* \"VotacionUD/votacionUD.sol\":4505:4523  candidatoGanador() */\n      jump\t// in\n    tag_46:\n        /* \"VotacionUD/votacionUD.sol\":4494:4524  candidatos[candidatoGanador()] */\n      dup2\n      sload\n      dup2\n      lt\n      tag_47\n      jumpi\n      tag_48\n      tag_49\n      jump\t// in\n    tag_48:\n    tag_47:\n      swap1\n      0x00\n      mstore\n      keccak256(0x00, 0x20)\n      swap1\n      0x02\n      mul\n      add\n        /* \"VotacionUD/votacionUD.sol\":4494:4540  candidatos[candidatoGanador()].nombreCandidato */\n      0x00\n      add\n      sload\n        /* \"VotacionUD/votacionUD.sol\":4471:4540  nomCandidatoGanador_ = candidatos[candidatoGanador()].nombreCandidato */\n      swap1\n      pop\n        /* \"VotacionUD/votacionUD.sol\":4358:4548  function nomCandidatoGanador() external view... */\n      swap1\n      jump\t// out\n        /* \"VotacionUD/votacionUD.sol\":1071:1550  function darDerechoAVotar(address voter) external {... */\n    tag_19:\n        /* \"VotacionUD/votacionUD.sol\":1240:1253  adminVotacion */\n      0x00\n      dup1\n      sload\n      swap1\n      0x0100\n      exp\n      swap1\n      div\n      0xffffffffffffffffffffffffffffffffffffffff\n      and\n        /* \"VotacionUD/votacionUD.sol\":1226:1253  msg.sender == adminVotacion */\n      0xffffffffffffffffffffffffffffffffffffffff\n      and\n        /* \"VotacionUD/votacionUD.sol\":1226:1236  msg.sender */\n      caller\n        /* \"VotacionUD/votacionUD.sol\":1226:1253  msg.sender == adminVotacion */\n      0xffffffffffffffffffffffffffffffffffffffff\n      and\n      eq\n        /* \"VotacionUD/votacionUD.sol\":1204:1335  require(... */\n      tag_52\n      jumpi\n      mload(0x40)\n      0x08c379a000000000000000000000000000000000000000000000000000000000\n      dup2\n      mstore\n      0x04\n      add\n      tag_53\n      swap1\n      tag_54\n      jump\t// in\n    tag_53:\n      mload(0x40)\n      dup1\n      swap2\n      sub\n      swap1\n      revert\n    tag_52:\n        /* \"VotacionUD/votacionUD.sol\":1369:1377  votantes */\n      0x01\n        /* \"VotacionUD/votacionUD.sol\":1369:1384  votantes[voter] */\n      0x00\n        /* \"VotacionUD/votacionUD.sol\":1378:1383  voter */\n      dup3\n        /* \"VotacionUD/votacionUD.sol\":1369:1384  votantes[voter] */\n      0xffffffffffffffffffffffffffffffffffffffff\n      and\n      0xffffffffffffffffffffffffffffffffffffffff\n      and\n      dup2\n      mstore\n      0x20\n      add\n      swap1\n      dup2\n      mstore\n      0x20\n      add\n      0x00\n      keccak256\n        /* \"VotacionUD/votacionUD.sol\":1369:1391  votantes[voter].isVoto */\n      0x01\n      add\n      0x00\n      swap1\n      sload\n      swap1\n      0x0100\n      exp\n      swap1\n      div\n      0xff\n      and\n        /* \"VotacionUD/votacionUD.sol\":1368:1391  !votantes[voter].isVoto */\n      iszero\n        /* \"VotacionUD/votacionUD.sol\":1346:1454  require(... */\n      tag_55\n      jumpi\n      mload(0x40)\n      0x08c379a000000000000000000000000000000000000000000000000000000000\n      dup2\n      mstore\n      0x04\n      add\n      tag_56\n      swap1\n      tag_57\n      jump\t// in\n    tag_56:\n      mload(0x40)\n      dup1\n      swap2\n      sub\n      swap1\n      revert\n    tag_55:\n        /* \"VotacionUD/votacionUD.sol\":1501:1502  0 */\n      0x00\n        /* \"VotacionUD/votacionUD.sol\":1473:1481  votantes */\n      0x01\n        /* \"VotacionUD/votacionUD.sol\":1473:1488  votantes[voter] */\n      0x00\n        /* \"VotacionUD/votacionUD.sol\":1482:1487  voter */\n      dup4\n        /* \"VotacionUD/votacionUD.sol\":1473:1488  votantes[voter] */\n      0xffffffffffffffffffffffffffffffffffffffff\n      and\n      0xffffffffffffffffffffffffffffffffffffffff\n      and\n      dup2\n      mstore\n      0x20\n      add\n      swap1\n      dup2\n      mstore\n      0x20\n      add\n      0x00\n      keccak256\n        /* \"VotacionUD/votacionUD.sol\":1473:1497  votantes[voter].pesoVoto */\n      0x00\n      add\n      sload\n        /* \"VotacionUD/votacionUD.sol\":1473:1502  votantes[voter].pesoVoto == 0 */\n      eq\n        /* \"VotacionUD/votacionUD.sol\":1465:1503  require(votantes[voter].pesoVoto == 0) */\n      tag_58\n      jumpi\n      0x00\n      dup1\n      revert\n    tag_58:\n        /* \"VotacionUD/votacionUD.sol\":1541:1542  1 */\n      0x01\n        /* \"VotacionUD/votacionUD.sol\":1514:1522  votantes */\n      dup1\n        /* \"VotacionUD/votacionUD.sol\":1514:1529  votantes[voter] */\n      0x00\n        /* \"VotacionUD/votacionUD.sol\":1523:1528  voter */\n      dup4\n        /* \"VotacionUD/votacionUD.sol\":1514:1529  votantes[voter] */\n      0xffffffffffffffffffffffffffffffffffffffff\n      and\n      0xffffffffffffffffffffffffffffffffffffffff\n      and\n      dup2\n      mstore\n      0x20\n      add\n      swap1\n      dup2\n      mstore\n      0x20\n      add\n      0x00\n      keccak256\n        /* \"VotacionUD/votacionUD.sol\":1514:1538  votantes[voter].pesoVoto */\n      0x00\n      add\n        /* \"VotacionUD/votacionUD.sol\":1514:1542  votantes[voter].pesoVoto = 1 */\n      dup2\n      swap1\n      sstore\n      pop\n        /* \"VotacionUD/votacionUD.sol\":1071:1550  function darDerechoAVotar(address voter) external {... */\n      pop\n      jump\t// out\n        /* \"VotacionUD/votacionUD.sol\":3838:4227  function candidatoGanador() public view... */\n    tag_21:\n        /* \"VotacionUD/votacionUD.sol\":3900:3922  uint candidatoGanador_ */\n      0x00\n        /* \"VotacionUD/votacionUD.sol\":3940:3961  uint winningVoteCount */\n      dup1\n        /* \"VotacionUD/votacionUD.sol\":3964:3965  0 */\n      0x00\n        /* \"VotacionUD/votacionUD.sol\":3940:3965  uint winningVoteCount = 0 */\n      swap1\n      pop\n        /* \"VotacionUD/votacionUD.sol\":3981:3987  uint p */\n      0x00\n        /* \"VotacionUD/votacionUD.sol\":3976:4220  for (uint p = 0; p < candidatos.length; p++) {... */\n    tag_60:\n        /* \"VotacionUD/votacionUD.sol\":3997:4007  candidatos */\n      0x02\n        /* \"VotacionUD/votacionUD.sol\":3997:4014  candidatos.length */\n      dup1\n      sload\n      swap1\n      pop\n        /* \"VotacionUD/votacionUD.sol\":3993:3994  p */\n      dup2\n        /* \"VotacionUD/votacionUD.sol\":3993:4014  p < candidatos.length */\n      lt\n        /* \"VotacionUD/votacionUD.sol\":3976:4220  for (uint p = 0; p < candidatos.length; p++) {... */\n      iszero\n      tag_61\n      jumpi\n        /* \"VotacionUD/votacionUD.sol\":4070:4086  winningVoteCount */\n      dup2\n        /* \"VotacionUD/votacionUD.sol\":4040:4050  candidatos */\n      0x02\n        /* \"VotacionUD/votacionUD.sol\":4051:4052  p */\n      dup3\n        /* \"VotacionUD/votacionUD.sol\":4040:4053  candidatos[p] */\n      dup2\n      sload\n      dup2\n      lt\n      tag_63\n      jumpi\n      tag_64\n      tag_49\n      jump\t// in\n    tag_64:\n    tag_63:\n      swap1\n      0x00\n      mstore\n      keccak256(0x00, 0x20)\n      swap1\n      0x02\n      mul\n      add\n        /* \"VotacionUD/votacionUD.sol\":4040:4067  candidatos[p].contadorVotos */\n      0x01\n      add\n      sload\n        /* \"VotacionUD/votacionUD.sol\":4040:4086  candidatos[p].contadorVotos > winningVoteCount */\n      gt\n        /* \"VotacionUD/votacionUD.sol\":4036:4209  if (candidatos[p].contadorVotos > winningVoteCount) {... */\n      iszero\n      tag_66\n      jumpi\n        /* \"VotacionUD/votacionUD.sol\":4126:4136  candidatos */\n      0x02\n        /* \"VotacionUD/votacionUD.sol\":4137:4138  p */\n      dup2\n        /* \"VotacionUD/votacionUD.sol\":4126:4139  candidatos[p] */\n      dup2\n      sload\n      dup2\n      lt\n      tag_67\n      jumpi\n      tag_68\n      tag_49\n      jump\t// in\n    tag_68:\n    tag_67:\n      swap1\n      0x00\n      mstore\n      keccak256(0x00, 0x20)\n      swap1\n      0x02\n      mul\n      add\n        /* \"VotacionUD/votacionUD.sol\":4126:4153  candidatos[p].contadorVotos */\n      0x01\n      add\n      sload\n        /* \"VotacionUD/votacionUD.sol\":4107:4153  winningVoteCount = candidatos[p].contadorVotos */\n      swap2\n      pop\n        /* \"VotacionUD/votacionUD.sol\":4192:4193  p */\n      dup1\n        /* \"VotacionUD/votacionUD.sol\":4172:4193  candidatoGanador_ = p */\n      swap3\n      pop\n        /* \"VotacionUD/votacionUD.sol\":4036:4209  if (candidatos[p].contadorVotos > winningVoteCount) {... */\n    tag_66:\n        /* \"VotacionUD/votacionUD.sol\":4016:4019  p++ */\n      dup1\n      dup1\n      tag_70\n      swap1\n      tag_71\n      jump\t// in\n    tag_70:\n      swap2\n      pop\n      pop\n        /* \"VotacionUD/votacionUD.sol\":3976:4220  for (uint p = 0; p < candidatos.length; p++) {... */\n      jump(tag_60)\n    tag_61:\n      pop\n        /* \"VotacionUD/votacionUD.sol\":3929:4227  {... */\n      pop\n        /* \"VotacionUD/votacionUD.sol\":3838:4227  function candidatoGanador() public view... */\n      swap1\n      jump\t// out\n        /* \"VotacionUD/votacionUD.sol\":548:577  Candidato[] public candidatos */\n    tag_27:\n      0x02\n      dup2\n      dup2\n      sload\n      dup2\n      lt\n      tag_72\n      jumpi\n      0x00\n      dup1\n      revert\n    tag_72:\n      swap1\n      0x00\n      mstore\n      keccak256(0x00, 0x20)\n      swap1\n      0x02\n      mul\n      add\n      0x00\n      swap2\n      pop\n      swap1\n      pop\n      dup1\n      0x00\n      add\n      sload\n      swap1\n      dup1\n      0x01\n      add\n      sload\n      swap1\n      pop\n      dup3\n      jump\t// out\n        /* \"VotacionUD/votacionUD.sol\":455:498  mapping(address => Votante) public votantes */\n    tag_32:\n      mstore(0x20, 0x01)\n      dup1\n      0x00\n      mstore\n      keccak256(0x00, 0x40)\n      0x00\n      swap2\n      pop\n      swap1\n      pop\n      dup1\n      0x00\n      add\n      sload\n      swap1\n      dup1\n      0x01\n      add\n      0x00\n      swap1\n      sload\n      swap1\n      0x0100\n      exp\n      swap1\n      div\n      0xff\n      and\n      swap1\n      dup1\n      0x01\n      add\n      0x01\n      swap1\n      sload\n      swap1\n      0x0100\n      exp\n      swap1\n      div\n      0xffffffffffffffffffffffffffffffffffffffff\n      and\n      swap1\n      dup1\n      0x02\n      add\n      sload\n      swap1\n      pop\n      dup5\n      jump\t// out\n        /* \"VotacionUD/votacionUD.sol\":412:440  address public adminVotacion */\n    tag_36:\n      0x00\n      dup1\n      sload\n      swap1\n      0x0100\n      exp\n      swap1\n      div\n      0xffffffffffffffffffffffffffffffffffffffff\n      and\n      dup2\n      jump\t// out\n        /* \"VotacionUD/votacionUD.sol\":3379:3743  function Votar(uint proposal) external {... */\n    tag_41:\n        /* \"VotacionUD/votacionUD.sol\":3429:3451  Votante storage sender */\n      0x00\n        /* \"VotacionUD/votacionUD.sol\":3454:3462  votantes */\n      0x01\n        /* \"VotacionUD/votacionUD.sol\":3454:3474  votantes[msg.sender] */\n      0x00\n        /* \"VotacionUD/votacionUD.sol\":3463:3473  msg.sender */\n      caller\n        /* \"VotacionUD/votacionUD.sol\":3454:3474  votantes[msg.sender] */\n      0xffffffffffffffffffffffffffffffffffffffff\n      and\n      0xffffffffffffffffffffffffffffffffffffffff\n      and\n      dup2\n      mstore\n      0x20\n      add\n      swap1\n      dup2\n      mstore\n      0x20\n      add\n      0x00\n      keccak256\n        /* \"VotacionUD/votacionUD.sol\":3429:3474  Votante storage sender = votantes[msg.sender] */\n      swap1\n      pop\n        /* \"VotacionUD/votacionUD.sol\":3512:3513  0 */\n      0x00\n        /* \"VotacionUD/votacionUD.sol\":3493:3499  sender */\n      dup2\n        /* \"VotacionUD/votacionUD.sol\":3493:3508  sender.pesoVoto */\n      0x00\n      add\n      sload\n        /* \"VotacionUD/votacionUD.sol\":3493:3513  sender.pesoVoto != 0 */\n      sub\n        /* \"VotacionUD/votacionUD.sol\":3485:3544  require(sender.pesoVoto != 0, \"Has no right to indiceVoto\") */\n      tag_75\n      jumpi\n      mload(0x40)\n      0x08c379a000000000000000000000000000000000000000000000000000000000\n      dup2\n      mstore\n      0x04\n      add\n      tag_76\n      swap1\n      tag_77\n      jump\t// in\n    tag_76:\n      mload(0x40)\n      dup1\n      swap2\n      sub\n      swap1\n      revert\n    tag_75:\n        /* \"VotacionUD/votacionUD.sol\":3564:3570  sender */\n      dup1\n        /* \"VotacionUD/votacionUD.sol\":3564:3577  sender.isVoto */\n      0x01\n      add\n      0x00\n      swap1\n      sload\n      swap1\n      0x0100\n      exp\n      swap1\n      div\n      0xff\n      and\n        /* \"VotacionUD/votacionUD.sol\":3563:3577  !sender.isVoto */\n      iszero\n        /* \"VotacionUD/votacionUD.sol\":3555:3597  require(!sender.isVoto, \"Already isVoto.\") */\n      tag_78\n      jumpi\n      mload(0x40)\n      0x08c379a000000000000000000000000000000000000000000000000000000000\n      dup2\n      mstore\n      0x04\n      add\n      tag_79\n      swap1\n      tag_80\n      jump\t// in\n    tag_79:\n      mload(0x40)\n      dup1\n      swap2\n      sub\n      swap1\n      revert\n    tag_78:\n        /* \"VotacionUD/votacionUD.sol\":3624:3628  true */\n      0x01\n        /* \"VotacionUD/votacionUD.sol\":3608:3614  sender */\n      dup2\n        /* \"VotacionUD/votacionUD.sol\":3608:3621  sender.isVoto */\n      0x01\n      add\n      0x00\n        /* \"VotacionUD/votacionUD.sol\":3608:3628  sender.isVoto = true */\n      0x0100\n      exp\n      dup2\n      sload\n      dup2\n      0xff\n      mul\n      not\n      and\n      swap1\n      dup4\n      iszero\n      iszero\n      mul\n      or\n      swap1\n      sstore\n      pop\n        /* \"VotacionUD/votacionUD.sol\":3659:3667  proposal */\n      dup2\n        /* \"VotacionUD/votacionUD.sol\":3639:3645  sender */\n      dup2\n        /* \"VotacionUD/votacionUD.sol\":3639:3656  sender.indiceVoto */\n      0x02\n      add\n        /* \"VotacionUD/votacionUD.sol\":3639:3667  sender.indiceVoto = proposal */\n      dup2\n      swap1\n      sstore\n      pop\n        /* \"VotacionUD/votacionUD.sol\":3720:3726  sender */\n      dup1\n        /* \"VotacionUD/votacionUD.sol\":3720:3735  sender.pesoVoto */\n      0x00\n      add\n      sload\n        /* \"VotacionUD/votacionUD.sol\":3682:3692  candidatos */\n      0x02\n        /* \"VotacionUD/votacionUD.sol\":3693:3701  proposal */\n      dup4\n        /* \"VotacionUD/votacionUD.sol\":3682:3702  candidatos[proposal] */\n      dup2\n      sload\n      dup2\n      lt\n      tag_81\n      jumpi\n      tag_82\n      tag_49\n      jump\t// in\n    tag_82:\n    tag_81:\n      swap1\n      0x00\n      mstore\n      keccak256(0x00, 0x20)\n      swap1\n      0x02\n      mul\n      add\n        /* \"VotacionUD/votacionUD.sol\":3682:3716  candidatos[proposal].contadorVotos */\n      0x01\n      add\n      0x00\n        /* \"VotacionUD/votacionUD.sol\":3682:3735  candidatos[proposal].contadorVotos += sender.pesoVoto */\n      dup3\n      dup3\n      sload\n      tag_84\n      swap2\n      swap1\n      tag_85\n      jump\t// in\n    tag_84:\n      swap3\n      pop\n      pop\n      dup2\n      swap1\n      sstore\n      pop\n        /* \"VotacionUD/votacionUD.sol\":3418:3743  {... */\n      pop\n        /* \"VotacionUD/votacionUD.sol\":3379:3743  function Votar(uint proposal) external {... */\n      pop\n      jump\t// out\n        /* \"VotacionUD/votacionUD.sol\":1611:3323  function delegado(address to) external {... */\n    tag_44:\n        /* \"VotacionUD/votacionUD.sol\":1691:1713  Votante storage sender */\n      0x00\n        /* \"VotacionUD/votacionUD.sol\":1716:1724  votantes */\n      0x01\n        /* \"VotacionUD/votacionUD.sol\":1716:1736  votantes[msg.sender] */\n      0x00\n        /* \"VotacionUD/votacionUD.sol\":1725:1735  msg.sender */\n      caller\n        /* \"VotacionUD/votacionUD.sol\":1716:1736  votantes[msg.sender] */\n      0xffffffffffffffffffffffffffffffffffffffff\n      and\n      0xffffffffffffffffffffffffffffffffffffffff\n      and\n      dup2\n      mstore\n      0x20\n      add\n      swap1\n      dup2\n      mstore\n      0x20\n      add\n      0x00\n      keccak256\n        /* \"VotacionUD/votacionUD.sol\":1691:1736  Votante storage sender = votantes[msg.sender] */\n      swap1\n      pop\n        /* \"VotacionUD/votacionUD.sol\":1774:1775  0 */\n      0x00\n        /* \"VotacionUD/votacionUD.sol\":1755:1761  sender */\n      dup2\n        /* \"VotacionUD/votacionUD.sol\":1755:1770  sender.pesoVoto */\n      0x00\n      add\n      sload\n        /* \"VotacionUD/votacionUD.sol\":1755:1775  sender.pesoVoto != 0 */\n      sub\n        /* \"VotacionUD/votacionUD.sol\":1747:1811  require(sender.pesoVoto != 0, \"You have no right to indiceVoto\") */\n      tag_87\n      jumpi\n      mload(0x40)\n      0x08c379a000000000000000000000000000000000000000000000000000000000\n      dup2\n      mstore\n      0x04\n      add\n      tag_88\n      swap1\n      tag_89\n      jump\t// in\n    tag_88:\n      mload(0x40)\n      dup1\n      swap2\n      sub\n      swap1\n      revert\n    tag_87:\n        /* \"VotacionUD/votacionUD.sol\":1831:1837  sender */\n      dup1\n        /* \"VotacionUD/votacionUD.sol\":1831:1844  sender.isVoto */\n      0x01\n      add\n      0x00\n      swap1\n      sload\n      swap1\n      0x0100\n      exp\n      swap1\n      div\n      0xff\n      and\n        /* \"VotacionUD/votacionUD.sol\":1830:1844  !sender.isVoto */\n      iszero\n        /* \"VotacionUD/votacionUD.sol\":1822:1868  require(!sender.isVoto, \"You already isVoto.\") */\n      tag_90\n      jumpi\n      mload(0x40)\n      0x08c379a000000000000000000000000000000000000000000000000000000000\n      dup2\n      mstore\n      0x04\n      add\n      tag_91\n      swap1\n      tag_92\n      jump\t// in\n    tag_91:\n      mload(0x40)\n      dup1\n      swap2\n      sub\n      swap1\n      revert\n    tag_90:\n        /* \"VotacionUD/votacionUD.sol\":1895:1905  msg.sender */\n      caller\n        /* \"VotacionUD/votacionUD.sol\":1889:1905  to != msg.sender */\n      0xffffffffffffffffffffffffffffffffffffffff\n      and\n        /* \"VotacionUD/votacionUD.sol\":1889:1891  to */\n      dup3\n        /* \"VotacionUD/votacionUD.sol\":1889:1905  to != msg.sender */\n      0xffffffffffffffffffffffffffffffffffffffff\n      and\n      sub\n        /* \"VotacionUD/votacionUD.sol\":1881:1940  require(to != msg.sender, \"Self-delegation is disallowed.\") */\n      tag_93\n      jumpi\n      mload(0x40)\n      0x08c379a000000000000000000000000000000000000000000000000000000000\n      dup2\n      mstore\n      0x04\n      add\n      tag_94\n      swap1\n      tag_95\n      jump\t// in\n    tag_94:\n      mload(0x40)\n      dup1\n      swap2\n      sub\n      swap1\n      revert\n    tag_93:\n        /* \"VotacionUD/votacionUD.sol\":2369:2601  while (votantes[to].delegado != address(0)) {... */\n    tag_96:\n        /* \"VotacionUD/votacionUD.sol\":2409:2410  0 */\n      0x00\n        /* \"VotacionUD/votacionUD.sol\":2376:2411  votantes[to].delegado != address(0) */\n      0xffffffffffffffffffffffffffffffffffffffff\n      and\n        /* \"VotacionUD/votacionUD.sol\":2376:2384  votantes */\n      0x01\n        /* \"VotacionUD/votacionUD.sol\":2376:2388  votantes[to] */\n      0x00\n        /* \"VotacionUD/votacionUD.sol\":2385:2387  to */\n      dup5\n        /* \"VotacionUD/votacionUD.sol\":2376:2388  votantes[to] */\n      0xffffffffffffffffffffffffffffffffffffffff\n      and\n      0xffffffffffffffffffffffffffffffffffffffff\n      and\n      dup2\n      mstore\n      0x20\n      add\n      swap1\n      dup2\n      mstore\n      0x20\n      add\n      0x00\n      keccak256\n        /* \"VotacionUD/votacionUD.sol\":2376:2397  votantes[to].delegado */\n      0x01\n      add\n      0x01\n      swap1\n      sload\n      swap1\n      0x0100\n      exp\n      swap1\n      div\n      0xffffffffffffffffffffffffffffffffffffffff\n      and\n        /* \"VotacionUD/votacionUD.sol\":2376:2411  votantes[to].delegado != address(0) */\n      0xffffffffffffffffffffffffffffffffffffffff\n      and\n      eq\n        /* \"VotacionUD/votacionUD.sol\":2369:2601  while (votantes[to].delegado != address(0)) {... */\n      tag_97\n      jumpi\n        /* \"VotacionUD/votacionUD.sol\":2433:2441  votantes */\n      0x01\n        /* \"VotacionUD/votacionUD.sol\":2433:2445  votantes[to] */\n      0x00\n        /* \"VotacionUD/votacionUD.sol\":2442:2444  to */\n      dup4\n        /* \"VotacionUD/votacionUD.sol\":2433:2445  votantes[to] */\n      0xffffffffffffffffffffffffffffffffffffffff\n      and\n      0xffffffffffffffffffffffffffffffffffffffff\n      and\n      dup2\n      mstore\n      0x20\n      add\n      swap1\n      dup2\n      mstore\n      0x20\n      add\n      0x00\n      keccak256\n        /* \"VotacionUD/votacionUD.sol\":2433:2454  votantes[to].delegado */\n      0x01\n      add\n      0x01\n      swap1\n      sload\n      swap1\n      0x0100\n      exp\n      swap1\n      div\n      0xffffffffffffffffffffffffffffffffffffffff\n      and\n        /* \"VotacionUD/votacionUD.sol\":2428:2454  to = votantes[to].delegado */\n      swap2\n      pop\n        /* \"VotacionUD/votacionUD.sol\":2549:2559  msg.sender */\n      caller\n        /* \"VotacionUD/votacionUD.sol\":2543:2559  to != msg.sender */\n      0xffffffffffffffffffffffffffffffffffffffff\n      and\n        /* \"VotacionUD/votacionUD.sol\":2543:2545  to */\n      dup3\n        /* \"VotacionUD/votacionUD.sol\":2543:2559  to != msg.sender */\n      0xffffffffffffffffffffffffffffffffffffffff\n      and\n      sub\n        /* \"VotacionUD/votacionUD.sol\":2535:2589  require(to != msg.sender, \"Found loop in delegation.\") */\n      tag_98\n      jumpi\n      mload(0x40)\n      0x08c379a000000000000000000000000000000000000000000000000000000000\n      dup2\n      mstore\n      0x04\n      add\n      tag_99\n      swap1\n      tag_100\n      jump\t// in\n    tag_99:\n      mload(0x40)\n      dup1\n      swap2\n      sub\n      swap1\n      revert\n    tag_98:\n        /* \"VotacionUD/votacionUD.sol\":2369:2601  while (votantes[to].delegado != address(0)) {... */\n      jump(tag_96)\n    tag_97:\n        /* \"VotacionUD/votacionUD.sol\":2613:2638  Votante storage delegate_ */\n      0x00\n        /* \"VotacionUD/votacionUD.sol\":2641:2649  votantes */\n      0x01\n        /* \"VotacionUD/votacionUD.sol\":2641:2653  votantes[to] */\n      0x00\n        /* \"VotacionUD/votacionUD.sol\":2650:2652  to */\n      dup5\n        /* \"VotacionUD/votacionUD.sol\":2641:2653  votantes[to] */\n      0xffffffffffffffffffffffffffffffffffffffff\n      and\n      0xffffffffffffffffffffffffffffffffffffffff\n      and\n      dup2\n      mstore\n      0x20\n      add\n      swap1\n      dup2\n      mstore\n      0x20\n      add\n      0x00\n      keccak256\n        /* \"VotacionUD/votacionUD.sol\":2613:2653  Votante storage delegate_ = votantes[to] */\n      swap1\n      pop\n        /* \"VotacionUD/votacionUD.sol\":2767:2768  1 */\n      0x01\n        /* \"VotacionUD/votacionUD.sol\":2745:2754  delegate_ */\n      dup2\n        /* \"VotacionUD/votacionUD.sol\":2745:2763  delegate_.pesoVoto */\n      0x00\n      add\n      sload\n        /* \"VotacionUD/votacionUD.sol\":2745:2768  delegate_.pesoVoto >= 1 */\n      lt\n      iszero\n        /* \"VotacionUD/votacionUD.sol\":2737:2769  require(delegate_.pesoVoto >= 1) */\n      tag_101\n      jumpi\n      0x00\n      dup1\n      revert\n    tag_101:\n        /* \"VotacionUD/votacionUD.sol\":2891:2895  true */\n      0x01\n        /* \"VotacionUD/votacionUD.sol\":2875:2881  sender */\n      dup3\n        /* \"VotacionUD/votacionUD.sol\":2875:2888  sender.isVoto */\n      0x01\n      add\n      0x00\n        /* \"VotacionUD/votacionUD.sol\":2875:2895  sender.isVoto = true */\n      0x0100\n      exp\n      dup2\n      sload\n      dup2\n      0xff\n      mul\n      not\n      and\n      swap1\n      dup4\n      iszero\n      iszero\n      mul\n      or\n      swap1\n      sstore\n      pop\n        /* \"VotacionUD/votacionUD.sol\":2924:2926  to */\n      dup3\n        /* \"VotacionUD/votacionUD.sol\":2906:2912  sender */\n      dup3\n        /* \"VotacionUD/votacionUD.sol\":2906:2921  sender.delegado */\n      0x01\n      add\n      0x01\n        /* \"VotacionUD/votacionUD.sol\":2906:2926  sender.delegado = to */\n      0x0100\n      exp\n      dup2\n      sload\n      dup2\n      0xffffffffffffffffffffffffffffffffffffffff\n      mul\n      not\n      and\n      swap1\n      dup4\n      0xffffffffffffffffffffffffffffffffffffffff\n      and\n      mul\n      or\n      swap1\n      sstore\n      pop\n        /* \"VotacionUD/votacionUD.sol\":2943:2952  delegate_ */\n      dup1\n        /* \"VotacionUD/votacionUD.sol\":2943:2959  delegate_.isVoto */\n      0x01\n      add\n      0x00\n      swap1\n      sload\n      swap1\n      0x0100\n      exp\n      swap1\n      div\n      0xff\n      and\n        /* \"VotacionUD/votacionUD.sol\":2939:3316  if (delegate_.isVoto) {... */\n      iszero\n      tag_102\n      jumpi\n        /* \"VotacionUD/votacionUD.sol\":3126:3132  sender */\n      dup2\n        /* \"VotacionUD/votacionUD.sol\":3126:3141  sender.pesoVoto */\n      0x00\n      add\n      sload\n        /* \"VotacionUD/votacionUD.sol\":3076:3086  candidatos */\n      0x02\n        /* \"VotacionUD/votacionUD.sol\":3087:3096  delegate_ */\n      dup3\n        /* \"VotacionUD/votacionUD.sol\":3087:3107  delegate_.indiceVoto */\n      0x02\n      add\n      sload\n        /* \"VotacionUD/votacionUD.sol\":3076:3108  candidatos[delegate_.indiceVoto] */\n      dup2\n      sload\n      dup2\n      lt\n      tag_103\n      jumpi\n      tag_104\n      tag_49\n      jump\t// in\n    tag_104:\n    tag_103:\n      swap1\n      0x00\n      mstore\n      keccak256(0x00, 0x20)\n      swap1\n      0x02\n      mul\n      add\n        /* \"VotacionUD/votacionUD.sol\":3076:3122  candidatos[delegate_.indiceVoto].contadorVotos */\n      0x01\n      add\n      0x00\n        /* \"VotacionUD/votacionUD.sol\":3076:3141  candidatos[delegate_.indiceVoto].contadorVotos += sender.pesoVoto */\n      dup3\n      dup3\n      sload\n      tag_106\n      swap2\n      swap1\n      tag_85\n      jump\t// in\n    tag_106:\n      swap3\n      pop\n      pop\n      dup2\n      swap1\n      sstore\n      pop\n        /* \"VotacionUD/votacionUD.sol\":2939:3316  if (delegate_.isVoto) {... */\n      jump(tag_107)\n    tag_102:\n        /* \"VotacionUD/votacionUD.sol\":3289:3295  sender */\n      dup2\n        /* \"VotacionUD/votacionUD.sol\":3289:3304  sender.pesoVoto */\n      0x00\n      add\n      sload\n        /* \"VotacionUD/votacionUD.sol\":3267:3276  delegate_ */\n      dup2\n        /* \"VotacionUD/votacionUD.sol\":3267:3285  delegate_.pesoVoto */\n      0x00\n      add\n      0x00\n        /* \"VotacionUD/votacionUD.sol\":3267:3304  delegate_.pesoVoto += sender.pesoVoto */\n      dup3\n      dup3\n      sload\n      tag_108\n      swap2\n      swap1\n      tag_85\n      jump\t// in\n    tag_108:\n      swap3\n      pop\n      pop\n      dup2\n      swap1\n      sstore\n      pop\n        /* \"VotacionUD/votacionUD.sol\":2939:3316  if (delegate_.isVoto) {... */\n    tag_107:\n        /* \"VotacionUD/votacionUD.sol\":1650:3323  {... */\n      pop\n      pop\n        /* \"VotacionUD/votacionUD.sol\":1611:3323  function delegado(address to) external {... */\n      pop\n      jump\t// out\n        /* \"#utility.yul\":7:84   */\n    tag_109:\n        /* \"#utility.yul\":44:51   */\n      0x00\n        /* \"#utility.yul\":73:78   */\n      dup2\n        /* \"#utility.yul\":62:78   */\n      swap1\n      pop\n        /* \"#utility.yul\":7:84   */\n      swap2\n      swap1\n      pop\n      jump\t// out\n        /* \"#utility.yul\":90:208   */\n    tag_110:\n        /* \"#utility.yul\":177:201   */\n      tag_146\n        /* \"#utility.yul\":195:200   */\n      dup2\n        /* \"#utility.yul\":177:201   */\n      tag_109\n      jump\t// in\n    tag_146:\n        /* \"#utility.yul\":172:175   */\n      dup3\n        /* \"#utility.yul\":165:202   */\n      mstore\n        /* \"#utility.yul\":90:208   */\n      pop\n      pop\n      jump\t// out\n        /* \"#utility.yul\":214:436   */\n    tag_15:\n        /* \"#utility.yul\":307:311   */\n      0x00\n        /* \"#utility.yul\":345:347   */\n      0x20\n        /* \"#utility.yul\":334:343   */\n      dup3\n        /* \"#utility.yul\":330:348   */\n      add\n        /* \"#utility.yul\":322:348   */\n      swap1\n      pop\n        /* \"#utility.yul\":358:429   */\n      tag_148\n        /* \"#utility.yul\":426:427   */\n      0x00\n        /* \"#utility.yul\":415:424   */\n      dup4\n        /* \"#utility.yul\":411:428   */\n      add\n        /* \"#utility.yul\":402:408   */\n      dup5\n        /* \"#utility.yul\":358:429   */\n      tag_110\n      jump\t// in\n    tag_148:\n        /* \"#utility.yul\":214:436   */\n      swap3\n      swap2\n      pop\n      pop\n      jump\t// out\n        /* \"#utility.yul\":523:640   */\n    tag_112:\n        /* \"#utility.yul\":632:633   */\n      0x00\n        /* \"#utility.yul\":629:630   */\n      dup1\n        /* \"#utility.yul\":622:634   */\n      revert\n        /* \"#utility.yul\":769:895   */\n    tag_114:\n        /* \"#utility.yul\":806:813   */\n      0x00\n        /* \"#utility.yul\":846:888   */\n      0xffffffffffffffffffffffffffffffffffffffff\n        /* \"#utility.yul\":839:844   */\n      dup3\n        /* \"#utility.yul\":835:889   */\n      and\n        /* \"#utility.yul\":824:889   */\n      swap1\n      pop\n        /* \"#utility.yul\":769:895   */\n      swap2\n      swap1\n      pop\n      jump\t// out\n        /* \"#utility.yul\":901:997   */\n    tag_115:\n        /* \"#utility.yul\":938:945   */\n      0x00\n        /* \"#utility.yul\":967:991   */\n      tag_154\n        /* \"#utility.yul\":985:990   */\n      dup3\n        /* \"#utility.yul\":967:991   */\n      tag_114\n      jump\t// in\n    tag_154:\n        /* \"#utility.yul\":956:991   */\n      swap1\n      pop\n        /* \"#utility.yul\":901:997   */\n      swap2\n      swap1\n      pop\n      jump\t// out\n        /* \"#utility.yul\":1003:1125   */\n    tag_116:\n        /* \"#utility.yul\":1076:1100   */\n      tag_156\n        /* \"#utility.yul\":1094:1099   */\n      dup2\n        /* \"#utility.yul\":1076:1100   */\n      tag_115\n      jump\t// in\n    tag_156:\n        /* \"#utility.yul\":1069:1074   */\n      dup2\n        /* \"#utility.yul\":1066:1101   */\n      eq\n        /* \"#utility.yul\":1056:1119   */\n      tag_157\n      jumpi\n        /* \"#utility.yul\":1115:1116   */\n      0x00\n        /* \"#utility.yul\":1112:1113   */\n      dup1\n        /* \"#utility.yul\":1105:1117   */\n      revert\n        /* \"#utility.yul\":1056:1119   */\n    tag_157:\n        /* \"#utility.yul\":1003:1125   */\n      pop\n      jump\t// out\n        /* \"#utility.yul\":1131:1270   */\n    tag_117:\n        /* \"#utility.yul\":1177:1182   */\n      0x00\n        /* \"#utility.yul\":1215:1221   */\n      dup2\n        /* \"#utility.yul\":1202:1222   */\n      calldataload\n        /* \"#utility.yul\":1193:1222   */\n      swap1\n      pop\n        /* \"#utility.yul\":1231:1264   */\n      tag_159\n        /* \"#utility.yul\":1258:1263   */\n      dup2\n        /* \"#utility.yul\":1231:1264   */\n      tag_116\n      jump\t// in\n    tag_159:\n        /* \"#utility.yul\":1131:1270   */\n      swap3\n      swap2\n      pop\n      pop\n      jump\t// out\n        /* \"#utility.yul\":1276:1605   */\n    tag_18:\n        /* \"#utility.yul\":1335:1341   */\n      0x00\n        /* \"#utility.yul\":1384:1386   */\n      0x20\n        /* \"#utility.yul\":1372:1381   */\n      dup3\n        /* \"#utility.yul\":1363:1370   */\n      dup5\n        /* \"#utility.yul\":1359:1382   */\n      sub\n        /* \"#utility.yul\":1355:1387   */\n      slt\n        /* \"#utility.yul\":1352:1471   */\n      iszero\n      tag_161\n      jumpi\n        /* \"#utility.yul\":1390:1469   */\n      tag_162\n      tag_112\n      jump\t// in\n    tag_162:\n        /* \"#utility.yul\":1352:1471   */\n    tag_161:\n        /* \"#utility.yul\":1510:1511   */\n      0x00\n        /* \"#utility.yul\":1535:1588   */\n      tag_163\n        /* \"#utility.yul\":1580:1587   */\n      dup5\n        /* \"#utility.yul\":1571:1577   */\n      dup3\n        /* \"#utility.yul\":1560:1569   */\n      dup6\n        /* \"#utility.yul\":1556:1578   */\n      add\n        /* \"#utility.yul\":1535:1588   */\n      tag_117\n      jump\t// in\n    tag_163:\n        /* \"#utility.yul\":1525:1588   */\n      swap2\n      pop\n        /* \"#utility.yul\":1481:1598   */\n      pop\n        /* \"#utility.yul\":1276:1605   */\n      swap3\n      swap2\n      pop\n      pop\n      jump\t// out\n        /* \"#utility.yul\":1611:1688   */\n    tag_118:\n        /* \"#utility.yul\":1648:1655   */\n      0x00\n        /* \"#utility.yul\":1677:1682   */\n      dup2\n        /* \"#utility.yul\":1666:1682   */\n      swap1\n      pop\n        /* \"#utility.yul\":1611:1688   */\n      swap2\n      swap1\n      pop\n      jump\t// out\n        /* \"#utility.yul\":1694:1812   */\n    tag_119:\n        /* \"#utility.yul\":1781:1805   */\n      tag_166\n        /* \"#utility.yul\":1799:1804   */\n      dup2\n        /* \"#utility.yul\":1781:1805   */\n      tag_118\n      jump\t// in\n    tag_166:\n        /* \"#utility.yul\":1776:1779   */\n      dup3\n        /* \"#utility.yul\":1769:1806   */\n      mstore\n        /* \"#utility.yul\":1694:1812   */\n      pop\n      pop\n      jump\t// out\n        /* \"#utility.yul\":1818:2040   */\n    tag_23:\n        /* \"#utility.yul\":1911:1915   */\n      0x00\n        /* \"#utility.yul\":1949:1951   */\n      0x20\n        /* \"#utility.yul\":1938:1947   */\n      dup3\n        /* \"#utility.yul\":1934:1952   */\n      add\n        /* \"#utility.yul\":1926:1952   */\n      swap1\n      pop\n        /* \"#utility.yul\":1962:2033   */\n      tag_168\n        /* \"#utility.yul\":2030:2031   */\n      0x00\n        /* \"#utility.yul\":2019:2028   */\n      dup4\n        /* \"#utility.yul\":2015:2032   */\n      add\n        /* \"#utility.yul\":2006:2012   */\n      dup5\n        /* \"#utility.yul\":1962:2033   */\n      tag_119\n      jump\t// in\n    tag_168:\n        /* \"#utility.yul\":1818:2040   */\n      swap3\n      swap2\n      pop\n      pop\n      jump\t// out\n        /* \"#utility.yul\":2046:2168   */\n    tag_120:\n        /* \"#utility.yul\":2119:2143   */\n      tag_170\n        /* \"#utility.yul\":2137:2142   */\n      dup2\n        /* \"#utility.yul\":2119:2143   */\n      tag_118\n      jump\t// in\n    tag_170:\n        /* \"#utility.yul\":2112:2117   */\n      dup2\n        /* \"#utility.yul\":2109:2144   */\n      eq\n        /* \"#utility.yul\":2099:2162   */\n      tag_171\n      jumpi\n        /* \"#utility.yul\":2158:2159   */\n      0x00\n        /* \"#utility.yul\":2155:2156   */\n      dup1\n        /* \"#utility.yul\":2148:2160   */\n      revert\n        /* \"#utility.yul\":2099:2162   */\n    tag_171:\n        /* \"#utility.yul\":2046:2168   */\n      pop\n      jump\t// out\n        /* \"#utility.yul\":2174:2313   */\n    tag_121:\n        /* \"#utility.yul\":2220:2225   */\n      0x00\n        /* \"#utility.yul\":2258:2264   */\n      dup2\n        /* \"#utility.yul\":2245:2265   */\n      calldataload\n        /* \"#utility.yul\":2236:2265   */\n      swap1\n      pop\n        /* \"#utility.yul\":2274:2307   */\n      tag_173\n        /* \"#utility.yul\":2301:2306   */\n      dup2\n        /* \"#utility.yul\":2274:2307   */\n      tag_120\n      jump\t// in\n    tag_173:\n        /* \"#utility.yul\":2174:2313   */\n      swap3\n      swap2\n      pop\n      pop\n      jump\t// out\n        /* \"#utility.yul\":2319:2648   */\n    tag_26:\n        /* \"#utility.yul\":2378:2384   */\n      0x00\n        /* \"#utility.yul\":2427:2429   */\n      0x20\n        /* \"#utility.yul\":2415:2424   */\n      dup3\n        /* \"#utility.yul\":2406:2413   */\n      dup5\n        /* \"#utility.yul\":2402:2425   */\n      sub\n        /* \"#utility.yul\":2398:2430   */\n      slt\n        /* \"#utility.yul\":2395:2514   */\n      iszero\n      tag_175\n      jumpi\n        /* \"#utility.yul\":2433:2512   */\n      tag_176\n      tag_112\n      jump\t// in\n    tag_176:\n        /* \"#utility.yul\":2395:2514   */\n    tag_175:\n        /* \"#utility.yul\":2553:2554   */\n      0x00\n        /* \"#utility.yul\":2578:2631   */\n      tag_177\n        /* \"#utility.yul\":2623:2630   */\n      dup5\n        /* \"#utility.yul\":2614:2620   */\n      dup3\n        /* \"#utility.yul\":2603:2612   */\n      dup6\n        /* \"#utility.yul\":2599:2621   */\n      add\n        /* \"#utility.yul\":2578:2631   */\n      tag_121\n      jump\t// in\n    tag_177:\n        /* \"#utility.yul\":2568:2631   */\n      swap2\n      pop\n        /* \"#utility.yul\":2524:2641   */\n      pop\n        /* \"#utility.yul\":2319:2648   */\n      swap3\n      swap2\n      pop\n      pop\n      jump\t// out\n        /* \"#utility.yul\":2654:2986   */\n    tag_29:\n        /* \"#utility.yul\":2775:2779   */\n      0x00\n        /* \"#utility.yul\":2813:2815   */\n      0x40\n        /* \"#utility.yul\":2802:2811   */\n      dup3\n        /* \"#utility.yul\":2798:2816   */\n      add\n        /* \"#utility.yul\":2790:2816   */\n      swap1\n      pop\n        /* \"#utility.yul\":2826:2897   */\n      tag_179\n        /* \"#utility.yul\":2894:2895   */\n      0x00\n        /* \"#utility.yul\":2883:2892   */\n      dup4\n        /* \"#utility.yul\":2879:2896   */\n      add\n        /* \"#utility.yul\":2870:2876   */\n      dup6\n        /* \"#utility.yul\":2826:2897   */\n      tag_110\n      jump\t// in\n    tag_179:\n        /* \"#utility.yul\":2907:2979   */\n      tag_180\n        /* \"#utility.yul\":2975:2977   */\n      0x20\n        /* \"#utility.yul\":2964:2973   */\n      dup4\n        /* \"#utility.yul\":2960:2978   */\n      add\n        /* \"#utility.yul\":2951:2957   */\n      dup5\n        /* \"#utility.yul\":2907:2979   */\n      tag_119\n      jump\t// in\n    tag_180:\n        /* \"#utility.yul\":2654:2986   */\n      swap4\n      swap3\n      pop\n      pop\n      pop\n      jump\t// out\n        /* \"#utility.yul\":2992:3082   */\n    tag_122:\n        /* \"#utility.yul\":3026:3033   */\n      0x00\n        /* \"#utility.yul\":3069:3074   */\n      dup2\n        /* \"#utility.yul\":3062:3075   */\n      iszero\n        /* \"#utility.yul\":3055:3076   */\n      iszero\n        /* \"#utility.yul\":3044:3076   */\n      swap1\n      pop\n        /* \"#utility.yul\":2992:3082   */\n      swap2\n      swap1\n      pop\n      jump\t// out\n        /* \"#utility.yul\":3088:3197   */\n    tag_123:\n        /* \"#utility.yul\":3169:3190   */\n      tag_183\n        /* \"#utility.yul\":3184:3189   */\n      dup2\n        /* \"#utility.yul\":3169:3190   */\n      tag_122\n      jump\t// in\n    tag_183:\n        /* \"#utility.yul\":3164:3167   */\n      dup3\n        /* \"#utility.yul\":3157:3191   */\n      mstore\n        /* \"#utility.yul\":3088:3197   */\n      pop\n      pop\n      jump\t// out\n        /* \"#utility.yul\":3203:3321   */\n    tag_124:\n        /* \"#utility.yul\":3290:3314   */\n      tag_185\n        /* \"#utility.yul\":3308:3313   */\n      dup2\n        /* \"#utility.yul\":3290:3314   */\n      tag_115\n      jump\t// in\n    tag_185:\n        /* \"#utility.yul\":3285:3288   */\n      dup3\n        /* \"#utility.yul\":3278:3315   */\n      mstore\n        /* \"#utility.yul\":3203:3321   */\n      pop\n      pop\n      jump\t// out\n        /* \"#utility.yul\":3327:3868   */\n    tag_34:\n        /* \"#utility.yul\":3498:3502   */\n      0x00\n        /* \"#utility.yul\":3536:3539   */\n      0x80\n        /* \"#utility.yul\":3525:3534   */\n      dup3\n        /* \"#utility.yul\":3521:3540   */\n      add\n        /* \"#utility.yul\":3513:3540   */\n      swap1\n      pop\n        /* \"#utility.yul\":3550:3621   */\n      tag_187\n        /* \"#utility.yul\":3618:3619   */\n      0x00\n        /* \"#utility.yul\":3607:3616   */\n      dup4\n        /* \"#utility.yul\":3603:3620   */\n      add\n        /* \"#utility.yul\":3594:3600   */\n      dup8\n        /* \"#utility.yul\":3550:3621   */\n      tag_119\n      jump\t// in\n    tag_187:\n        /* \"#utility.yul\":3631:3697   */\n      tag_188\n        /* \"#utility.yul\":3693:3695   */\n      0x20\n        /* \"#utility.yul\":3682:3691   */\n      dup4\n        /* \"#utility.yul\":3678:3696   */\n      add\n        /* \"#utility.yul\":3669:3675   */\n      dup7\n        /* \"#utility.yul\":3631:3697   */\n      tag_123\n      jump\t// in\n    tag_188:\n        /* \"#utility.yul\":3707:3779   */\n      tag_189\n        /* \"#utility.yul\":3775:3777   */\n      0x40\n        /* \"#utility.yul\":3764:3773   */\n      dup4\n        /* \"#utility.yul\":3760:3778   */\n      add\n        /* \"#utility.yul\":3751:3757   */\n      dup6\n        /* \"#utility.yul\":3707:3779   */\n      tag_124\n      jump\t// in\n    tag_189:\n        /* \"#utility.yul\":3789:3861   */\n      tag_190\n        /* \"#utility.yul\":3857:3859   */\n      0x60\n        /* \"#utility.yul\":3846:3855   */\n      dup4\n        /* \"#utility.yul\":3842:3860   */\n      add\n        /* \"#utility.yul\":3833:3839   */\n      dup5\n        /* \"#utility.yul\":3789:3861   */\n      tag_119\n      jump\t// in\n    tag_190:\n        /* \"#utility.yul\":3327:3868   */\n      swap6\n      swap5\n      pop\n      pop\n      pop\n      pop\n      pop\n      jump\t// out\n        /* \"#utility.yul\":3874:4096   */\n    tag_38:\n        /* \"#utility.yul\":3967:3971   */\n      0x00\n        /* \"#utility.yul\":4005:4007   */\n      0x20\n        /* \"#utility.yul\":3994:4003   */\n      dup3\n        /* \"#utility.yul\":3990:4008   */\n      add\n        /* \"#utility.yul\":3982:4008   */\n      swap1\n      pop\n        /* \"#utility.yul\":4018:4089   */\n      tag_192\n        /* \"#utility.yul\":4086:4087   */\n      0x00\n        /* \"#utility.yul\":4075:4084   */\n      dup4\n        /* \"#utility.yul\":4071:4088   */\n      add\n        /* \"#utility.yul\":4062:4068   */\n      dup5\n        /* \"#utility.yul\":4018:4089   */\n      tag_124\n      jump\t// in\n    tag_192:\n        /* \"#utility.yul\":3874:4096   */\n      swap3\n      swap2\n      pop\n      pop\n      jump\t// out\n        /* \"#utility.yul\":4102:4282   */\n    tag_49:\n        /* \"#utility.yul\":4150:4227   */\n      0x4e487b7100000000000000000000000000000000000000000000000000000000\n        /* \"#utility.yul\":4147:4148   */\n      0x00\n        /* \"#utility.yul\":4140:4228   */\n      mstore\n        /* \"#utility.yul\":4247:4251   */\n      0x32\n        /* \"#utility.yul\":4244:4245   */\n      0x04\n        /* \"#utility.yul\":4237:4252   */\n      mstore\n        /* \"#utility.yul\":4271:4275   */\n      0x24\n        /* \"#utility.yul\":4268:4269   */\n      0x00\n        /* \"#utility.yul\":4261:4276   */\n      revert\n        /* \"#utility.yul\":4288:4457   */\n    tag_125:\n        /* \"#utility.yul\":4372:4383   */\n      0x00\n        /* \"#utility.yul\":4406:4412   */\n      dup3\n        /* \"#utility.yul\":4401:4404   */\n      dup3\n        /* \"#utility.yul\":4394:4413   */\n      mstore\n        /* \"#utility.yul\":4446:4450   */\n      0x20\n        /* \"#utility.yul\":4441:4444   */\n      dup3\n        /* \"#utility.yul\":4437:4451   */\n      add\n        /* \"#utility.yul\":4422:4451   */\n      swap1\n      pop\n        /* \"#utility.yul\":4288:4457   */\n      swap3\n      swap2\n      pop\n      pop\n      jump\t// out\n        /* \"#utility.yul\":4463:4704   */\n    tag_126:\n        /* \"#utility.yul\":4603:4637   */\n      0x536f6c6f2061646d696e566f746163696f6e2070756564652064617220656c20\n        /* \"#utility.yul\":4599:4600   */\n      0x00\n        /* \"#utility.yul\":4591:4597   */\n      dup3\n        /* \"#utility.yul\":4587:4601   */\n      add\n        /* \"#utility.yul\":4580:4638   */\n      mstore\n        /* \"#utility.yul\":4672:4696   */\n      0x6465726563686f20646520696e64696365566f746f2e00000000000000000000\n        /* \"#utility.yul\":4667:4669   */\n      0x20\n        /* \"#utility.yul\":4659:4665   */\n      dup3\n        /* \"#utility.yul\":4655:4670   */\n      add\n        /* \"#utility.yul\":4648:4697   */\n      mstore\n        /* \"#utility.yul\":4463:4704   */\n      pop\n      jump\t// out\n        /* \"#utility.yul\":4710:5076   */\n    tag_127:\n        /* \"#utility.yul\":4852:4855   */\n      0x00\n        /* \"#utility.yul\":4873:4940   */\n      tag_197\n        /* \"#utility.yul\":4937:4939   */\n      0x36\n        /* \"#utility.yul\":4932:4935   */\n      dup4\n        /* \"#utility.yul\":4873:4940   */\n      tag_125\n      jump\t// in\n    tag_197:\n        /* \"#utility.yul\":4866:4940   */\n      swap2\n      pop\n        /* \"#utility.yul\":4949:5042   */\n      tag_198\n        /* \"#utility.yul\":5038:5041   */\n      dup3\n        /* \"#utility.yul\":4949:5042   */\n      tag_126\n      jump\t// in\n    tag_198:\n        /* \"#utility.yul\":5067:5069   */\n      0x40\n        /* \"#utility.yul\":5062:5065   */\n      dup3\n        /* \"#utility.yul\":5058:5070   */\n      add\n        /* \"#utility.yul\":5051:5070   */\n      swap1\n      pop\n        /* \"#utility.yul\":4710:5076   */\n      swap2\n      swap1\n      pop\n      jump\t// out\n        /* \"#utility.yul\":5082:5501   */\n    tag_54:\n        /* \"#utility.yul\":5248:5252   */\n      0x00\n        /* \"#utility.yul\":5286:5288   */\n      0x20\n        /* \"#utility.yul\":5275:5284   */\n      dup3\n        /* \"#utility.yul\":5271:5289   */\n      add\n        /* \"#utility.yul\":5263:5289   */\n      swap1\n      pop\n        /* \"#utility.yul\":5335:5344   */\n      dup2\n        /* \"#utility.yul\":5329:5333   */\n      dup2\n        /* \"#utility.yul\":5325:5345   */\n      sub\n        /* \"#utility.yul\":5321:5322   */\n      0x00\n        /* \"#utility.yul\":5310:5319   */\n      dup4\n        /* \"#utility.yul\":5306:5323   */\n      add\n        /* \"#utility.yul\":5299:5346   */\n      mstore\n        /* \"#utility.yul\":5363:5494   */\n      tag_200\n        /* \"#utility.yul\":5489:5493   */\n      dup2\n        /* \"#utility.yul\":5363:5494   */\n      tag_127\n      jump\t// in\n    tag_200:\n        /* \"#utility.yul\":5355:5494   */\n      swap1\n      pop\n        /* \"#utility.yul\":5082:5501   */\n      swap2\n      swap1\n      pop\n      jump\t// out\n        /* \"#utility.yul\":5507:5729   */\n    tag_128:\n        /* \"#utility.yul\":5647:5681   */\n      0x456c20766f74616e746520796120766f746f20286973566f746f203d20747275\n        /* \"#utility.yul\":5643:5644   */\n      0x00\n        /* \"#utility.yul\":5635:5641   */\n      dup3\n        /* \"#utility.yul\":5631:5645   */\n      add\n        /* \"#utility.yul\":5624:5682   */\n      mstore\n        /* \"#utility.yul\":5716:5721   */\n      0x65292e0000000000000000000000000000000000000000000000000000000000\n        /* \"#utility.yul\":5711:5713   */\n      0x20\n        /* \"#utility.yul\":5703:5709   */\n      dup3\n        /* \"#utility.yul\":5699:5714   */\n      add\n        /* \"#utility.yul\":5692:5722   */\n      mstore\n        /* \"#utility.yul\":5507:5729   */\n      pop\n      jump\t// out\n        /* \"#utility.yul\":5735:6101   */\n    tag_129:\n        /* \"#utility.yul\":5877:5880   */\n      0x00\n        /* \"#utility.yul\":5898:5965   */\n      tag_203\n        /* \"#utility.yul\":5962:5964   */\n      0x23\n        /* \"#utility.yul\":5957:5960   */\n      dup4\n        /* \"#utility.yul\":5898:5965   */\n      tag_125\n      jump\t// in\n    tag_203:\n        /* \"#utility.yul\":5891:5965   */\n      swap2\n      pop\n        /* \"#utility.yul\":5974:6067   */\n      tag_204\n        /* \"#utility.yul\":6063:6066   */\n      dup3\n        /* \"#utility.yul\":5974:6067   */\n      tag_128\n      jump\t// in\n    tag_204:\n        /* \"#utility.yul\":6092:6094   */\n      0x40\n        /* \"#utility.yul\":6087:6090   */\n      dup3\n        /* \"#utility.yul\":6083:6095   */\n      add\n        /* \"#utility.yul\":6076:6095   */\n      swap1\n      pop\n        /* \"#utility.yul\":5735:6101   */\n      swap2\n      swap1\n      pop\n      jump\t// out\n        /* \"#utility.yul\":6107:6526   */\n    tag_57:\n        /* \"#utility.yul\":6273:6277   */\n      0x00\n        /* \"#utility.yul\":6311:6313   */\n      0x20\n        /* \"#utility.yul\":6300:6309   */\n      dup3\n        /* \"#utility.yul\":6296:6314   */\n      add\n        /* \"#utility.yul\":6288:6314   */\n      swap1\n      pop\n        /* \"#utility.yul\":6360:6369   */\n      dup2\n        /* \"#utility.yul\":6354:6358   */\n      dup2\n        /* \"#utility.yul\":6350:6370   */\n      sub\n        /* \"#utility.yul\":6346:6347   */\n      0x00\n        /* \"#utility.yul\":6335:6344   */\n      dup4\n        /* \"#utility.yul\":6331:6348   */\n      add\n        /* \"#utility.yul\":6324:6371   */\n      mstore\n        /* \"#utility.yul\":6388:6519   */\n      tag_206\n        /* \"#utility.yul\":6514:6518   */\n      dup2\n        /* \"#utility.yul\":6388:6519   */\n      tag_129\n      jump\t// in\n    tag_206:\n        /* \"#utility.yul\":6380:6519   */\n      swap1\n      pop\n        /* \"#utility.yul\":6107:6526   */\n      swap2\n      swap1\n      pop\n      jump\t// out\n        /* \"#utility.yul\":6532:6712   */\n    tag_130:\n        /* \"#utility.yul\":6580:6657   */\n      0x4e487b7100000000000000000000000000000000000000000000000000000000\n        /* \"#utility.yul\":6577:6578   */\n      0x00\n        /* \"#utility.yul\":6570:6658   */\n      mstore\n        /* \"#utility.yul\":6677:6681   */\n      0x11\n        /* \"#utility.yul\":6674:6675   */\n      0x04\n        /* \"#utility.yul\":6667:6682   */\n      mstore\n        /* \"#utility.yul\":6701:6705   */\n      0x24\n        /* \"#utility.yul\":6698:6699   */\n      0x00\n        /* \"#utility.yul\":6691:6706   */\n      revert\n        /* \"#utility.yul\":6718:6951   */\n    tag_71:\n        /* \"#utility.yul\":6757:6760   */\n      0x00\n        /* \"#utility.yul\":6780:6804   */\n      tag_209\n        /* \"#utility.yul\":6798:6803   */\n      dup3\n        /* \"#utility.yul\":6780:6804   */\n      tag_118\n      jump\t// in\n    tag_209:\n        /* \"#utility.yul\":6771:6804   */\n      swap2\n      pop\n        /* \"#utility.yul\":6826:6892   */\n      0xffffffffffffffffffffffffffffffffffffffffffffffffffffffffffffffff\n        /* \"#utility.yul\":6819:6824   */\n      dup3\n        /* \"#utility.yul\":6816:6893   */\n      sub\n        /* \"#utility.yul\":6813:6916   */\n      tag_210\n      jumpi\n        /* \"#utility.yul\":6896:6914   */\n      tag_211\n      tag_130\n      jump\t// in\n    tag_211:\n        /* \"#utility.yul\":6813:6916   */\n    tag_210:\n        /* \"#utility.yul\":6943:6944   */\n      0x01\n        /* \"#utility.yul\":6936:6941   */\n      dup3\n        /* \"#utility.yul\":6932:6945   */\n      add\n        /* \"#utility.yul\":6925:6945   */\n      swap1\n      pop\n        /* \"#utility.yul\":6718:6951   */\n      swap2\n      swap1\n      pop\n      jump\t// out\n        /* \"#utility.yul\":6957:7133   */\n    tag_131:\n        /* \"#utility.yul\":7097:7125   */\n      0x486173206e6f20726967687420746f20696e64696365566f746f000000000000\n        /* \"#utility.yul\":7093:7094   */\n      0x00\n        /* \"#utility.yul\":7085:7091   */\n      dup3\n        /* \"#utility.yul\":7081:7095   */\n      add\n        /* \"#utility.yul\":7074:7126   */\n      mstore\n        /* \"#utility.yul\":6957:7133   */\n      pop\n      jump\t// out\n        /* \"#utility.yul\":7139:7505   */\n    tag_132:\n        /* \"#utility.yul\":7281:7284   */\n      0x00\n        /* \"#utility.yul\":7302:7369   */\n      tag_214\n        /* \"#utility.yul\":7366:7368   */\n      0x1a\n        /* \"#utility.yul\":7361:7364   */\n      dup4\n        /* \"#utility.yul\":7302:7369   */\n      tag_125\n      jump\t// in\n    tag_214:\n        /* \"#utility.yul\":7295:7369   */\n      swap2\n      pop\n        /* \"#utility.yul\":7378:7471   */\n      tag_215\n        /* \"#utility.yul\":7467:7470   */\n      dup3\n        /* \"#utility.yul\":7378:7471   */\n      tag_131\n      jump\t// in\n    tag_215:\n        /* \"#utility.yul\":7496:7498   */\n      0x20\n        /* \"#utility.yul\":7491:7494   */\n      dup3\n        /* \"#utility.yul\":7487:7499   */\n      add\n        /* \"#utility.yul\":7480:7499   */\n      swap1\n      pop\n        /* \"#utility.yul\":7139:7505   */\n      swap2\n      swap1\n      pop\n      jump\t// out\n        /* \"#utility.yul\":7511:7930   */\n    tag_77:\n        /* \"#utility.yul\":7677:7681   */\n      0x00\n        /* \"#utility.yul\":7715:7717   */\n      0x20\n        /* \"#utility.yul\":7704:7713   */\n      dup3\n        /* \"#utility.yul\":7700:7718   */\n      add\n        /* \"#utility.yul\":7692:7718   */\n      swap1\n      pop\n        /* \"#utility.yul\":7764:7773   */\n      dup2\n        /* \"#utility.yul\":7758:7762   */\n      dup2\n        /* \"#utility.yul\":7754:7774   */\n      sub\n        /* \"#utility.yul\":7750:7751   */\n      0x00\n        /* \"#utility.yul\":7739:7748   */\n      dup4\n        /* \"#utility.yul\":7735:7752   */\n      add\n        /* \"#utility.yul\":7728:7775   */\n      mstore\n        /* \"#utility.yul\":7792:7923   */\n      tag_217\n        /* \"#utility.yul\":7918:7922   */\n      dup2\n        /* \"#utility.yul\":7792:7923   */\n      tag_132\n      jump\t// in\n    tag_217:\n        /* \"#utility.yul\":7784:7923   */\n      swap1\n      pop\n        /* \"#utility.yul\":7511:7930   */\n      swap2\n      swap1\n      pop\n      jump\t// out\n        /* \"#utility.yul\":7936:8101   */\n    tag_133:\n        /* \"#utility.yul\":8076:8093   */\n      0x416c7265616479206973566f746f2e0000000000000000000000000000000000\n        /* \"#utility.yul\":8072:8073   */\n      0x00\n        /* \"#utility.yul\":8064:8070   */\n      dup3\n        /* \"#utility.yul\":8060:8074   */\n      add\n        /* \"#utility.yul\":8053:8094   */\n      mstore\n        /* \"#utility.yul\":7936:8101   */\n      pop\n      jump\t// out\n        /* \"#utility.yul\":8107:8473   */\n    tag_134:\n        /* \"#utility.yul\":8249:8252   */\n      0x00\n        /* \"#utility.yul\":8270:8337   */\n      tag_220\n        /* \"#utility.yul\":8334:8336   */\n      0x0f\n        /* \"#utility.yul\":8329:8332   */\n      dup4\n        /* \"#utility.yul\":8270:8337   */\n      tag_125\n      jump\t// in\n    tag_220:\n        /* \"#utility.yul\":8263:8337   */\n      swap2\n      pop\n        /* \"#utility.yul\":8346:8439   */\n      tag_221\n        /* \"#utility.yul\":8435:8438   */\n      dup3\n        /* \"#utility.yul\":8346:8439   */\n      tag_133\n      jump\t// in\n    tag_221:\n        /* \"#utility.yul\":8464:8466   */\n      0x20\n        /* \"#utility.yul\":8459:8462   */\n      dup3\n        /* \"#utility.yul\":8455:8467   */\n      add\n        /* \"#utility.yul\":8448:8467   */\n      swap1\n      pop\n        /* \"#utility.yul\":8107:8473   */\n      swap2\n      swap1\n      pop\n      jump\t// out\n        /* \"#utility.yul\":8479:8898   */\n    tag_80:\n        /* \"#utility.yul\":8645:8649   */\n      0x00\n        /* \"#utility.yul\":8683:8685   */\n      0x20\n        /* \"#utility.yul\":8672:8681   */\n      dup3\n        /* \"#utility.yul\":8668:8686   */\n      add\n        /* \"#utility.yul\":8660:8686   */\n      swap1\n      pop\n        /* \"#utility.yul\":8732:8741   */\n      dup2\n        /* \"#utility.yul\":8726:8730   */\n      dup2\n        /* \"#utility.yul\":8722:8742   */\n      sub\n        /* \"#utility.yul\":8718:8719   */\n      0x00\n        /* \"#utility.yul\":8707:8716   */\n      dup4\n        /* \"#utility.yul\":8703:8720   */\n      add\n        /* \"#utility.yul\":8696:8743   */\n      mstore\n        /* \"#utility.yul\":8760:8891   */\n      tag_223\n        /* \"#utility.yul\":8886:8890   */\n      dup2\n        /* \"#utility.yul\":8760:8891   */\n      tag_134\n      jump\t// in\n    tag_223:\n        /* \"#utility.yul\":8752:8891   */\n      swap1\n      pop\n        /* \"#utility.yul\":8479:8898   */\n      swap2\n      swap1\n      pop\n      jump\t// out\n        /* \"#utility.yul\":8904:9209   */\n    tag_85:\n        /* \"#utility.yul\":8944:8947   */\n      0x00\n        /* \"#utility.yul\":8963:8983   */\n      tag_225\n        /* \"#utility.yul\":8981:8982   */\n      dup3\n        /* \"#utility.yul\":8963:8983   */\n      tag_118\n      jump\t// in\n    tag_225:\n        /* \"#utility.yul\":8958:8983   */\n      swap2\n      pop\n        /* \"#utility.yul\":8997:9017   */\n      tag_226\n        /* \"#utility.yul\":9015:9016   */\n      dup4\n        /* \"#utility.yul\":8997:9017   */\n      tag_118\n      jump\t// in\n    tag_226:\n        /* \"#utility.yul\":8992:9017   */\n      swap3\n      pop\n        /* \"#utility.yul\":9151:9152   */\n      dup3\n        /* \"#utility.yul\":9083:9149   */\n      0xffffffffffffffffffffffffffffffffffffffffffffffffffffffffffffffff\n        /* \"#utility.yul\":9079:9153   */\n      sub\n        /* \"#utility.yul\":9076:9077   */\n      dup3\n        /* \"#utility.yul\":9073:9154   */\n      gt\n        /* \"#utility.yul\":9070:9177   */\n      iszero\n      tag_227\n      jumpi\n        /* \"#utility.yul\":9157:9175   */\n      tag_228\n      tag_130\n      jump\t// in\n    tag_228:\n        /* \"#utility.yul\":9070:9177   */\n    tag_227:\n        /* \"#utility.yul\":9201:9202   */\n      dup3\n        /* \"#utility.yul\":9198:9199   */\n      dup3\n        /* \"#utility.yul\":9194:9203   */\n      add\n        /* \"#utility.yul\":9187:9203   */\n      swap1\n      pop\n        /* \"#utility.yul\":8904:9209   */\n      swap3\n      swap2\n      pop\n      pop\n      jump\t// out\n        /* \"#utility.yul\":9215:9396   */\n    tag_135:\n        /* \"#utility.yul\":9355:9388   */\n      0x596f752068617665206e6f20726967687420746f20696e64696365566f746f00\n        /* \"#utility.yul\":9351:9352   */\n      0x00\n        /* \"#utility.yul\":9343:9349   */\n      dup3\n        /* \"#utility.yul\":9339:9353   */\n      add\n        /* \"#utility.yul\":9332:9389   */\n      mstore\n        /* \"#utility.yul\":9215:9396   */\n      pop\n      jump\t// out\n        /* \"#utility.yul\":9402:9768   */\n    tag_136:\n        /* \"#utility.yul\":9544:9547   */\n      0x00\n        /* \"#utility.yul\":9565:9632   */\n      tag_231\n        /* \"#utility.yul\":9629:9631   */\n      0x1f\n        /* \"#utility.yul\":9624:9627   */\n      dup4\n        /* \"#utility.yul\":9565:9632   */\n      tag_125\n      jump\t// in\n    tag_231:\n        /* \"#utility.yul\":9558:9632   */\n      swap2\n      pop\n        /* \"#utility.yul\":9641:9734   */\n      tag_232\n        /* \"#utility.yul\":9730:9733   */\n      dup3\n        /* \"#utility.yul\":9641:9734   */\n      tag_135\n      jump\t// in\n    tag_232:\n        /* \"#utility.yul\":9759:9761   */\n      0x20\n        /* \"#utility.yul\":9754:9757   */\n      dup3\n        /* \"#utility.yul\":9750:9762   */\n      add\n        /* \"#utility.yul\":9743:9762   */\n      swap1\n      pop\n        /* \"#utility.yul\":9402:9768   */\n      swap2\n      swap1\n      pop\n      jump\t// out\n        /* \"#utility.yul\":9774:10193   */\n    tag_89:\n        /* \"#utility.yul\":9940:9944   */\n      0x00\n        /* \"#utility.yul\":9978:9980   */\n      0x20\n        /* \"#utility.yul\":9967:9976   */\n      dup3\n        /* \"#utility.yul\":9963:9981   */\n      add\n        /* \"#utility.yul\":9955:9981   */\n      swap1\n      pop\n        /* \"#utility.yul\":10027:10036   */\n      dup2\n        /* \"#utility.yul\":10021:10025   */\n      dup2\n        /* \"#utility.yul\":10017:10037   */\n      sub\n        /* \"#utility.yul\":10013:10014   */\n      0x00\n        /* \"#utility.yul\":10002:10011   */\n      dup4\n        /* \"#utility.yul\":9998:10015   */\n      add\n        /* \"#utility.yul\":9991:10038   */\n      mstore\n        /* \"#utility.yul\":10055:10186   */\n      tag_234\n        /* \"#utility.yul\":10181:10185   */\n      dup2\n        /* \"#utility.yul\":10055:10186   */\n      tag_136\n      jump\t// in\n    tag_234:\n        /* \"#utility.yul\":10047:10186   */\n      swap1\n      pop\n        /* \"#utility.yul\":9774:10193   */\n      swap2\n      swap1\n      pop\n      jump\t// out\n        /* \"#utility.yul\":10199:10368   */\n    tag_137:\n        /* \"#utility.yul\":10339:10360   */\n      0x596f7520616c7265616479206973566f746f2e00000000000000000000000000\n        /* \"#utility.yul\":10335:10336   */\n      0x00\n        /* \"#utility.yul\":10327:10333   */\n      dup3\n        /* \"#utility.yul\":10323:10337   */\n      add\n        /* \"#utility.yul\":10316:10361   */\n      mstore\n        /* \"#utility.yul\":10199:10368   */\n      pop\n      jump\t// out\n        /* \"#utility.yul\":10374:10740   */\n    tag_138:\n        /* \"#utility.yul\":10516:10519   */\n      0x00\n        /* \"#utility.yul\":10537:10604   */\n      tag_237\n        /* \"#utility.yul\":10601:10603   */\n      0x13\n        /* \"#utility.yul\":10596:10599   */\n      dup4\n        /* \"#utility.yul\":10537:10604   */\n      tag_125\n      jump\t// in\n    tag_237:\n        /* \"#utility.yul\":10530:10604   */\n      swap2\n      pop\n        /* \"#utility.yul\":10613:10706   */\n      tag_238\n        /* \"#utility.yul\":10702:10705   */\n      dup3\n        /* \"#utility.yul\":10613:10706   */\n      tag_137\n      jump\t// in\n    tag_238:\n        /* \"#utility.yul\":10731:10733   */\n      0x20\n        /* \"#utility.yul\":10726:10729   */\n      dup3\n        /* \"#utility.yul\":10722:10734   */\n      add\n        /* \"#utility.yul\":10715:10734   */\n      swap1\n      pop\n        /* \"#utility.yul\":10374:10740   */\n      swap2\n      swap1\n      pop\n      jump\t// out\n        /* \"#utility.yul\":10746:11165   */\n    tag_92:\n        /* \"#utility.yul\":10912:10916   */\n      0x00\n        /* \"#utility.yul\":10950:10952   */\n      0x20\n        /* \"#utility.yul\":10939:10948   */\n      dup3\n        /* \"#utility.yul\":10935:10953   */\n      add\n        /* \"#utility.yul\":10927:10953   */\n      swap1\n      pop\n        /* \"#utility.yul\":10999:11008   */\n      dup2\n        /* \"#utility.yul\":10993:10997   */\n      dup2\n        /* \"#utility.yul\":10989:11009   */\n      sub\n        /* \"#utility.yul\":10985:10986   */\n      0x00\n        /* \"#utility.yul\":10974:10983   */\n      dup4\n        /* \"#utility.yul\":10970:10987   */\n      add\n        /* \"#utility.yul\":10963:11010   */\n      mstore\n        /* \"#utility.yul\":11027:11158   */\n      tag_240\n        /* \"#utility.yul\":11153:11157   */\n      dup2\n        /* \"#utility.yul\":11027:11158   */\n      tag_138\n      jump\t// in\n    tag_240:\n        /* \"#utility.yul\":11019:11158   */\n      swap1\n      pop\n        /* \"#utility.yul\":10746:11165   */\n      swap2\n      swap1\n      pop\n      jump\t// out\n        /* \"#utility.yul\":11171:11351   */\n    tag_139:\n        /* \"#utility.yul\":11311:11343   */\n      0x53656c662d64656c65676174696f6e20697320646973616c6c6f7765642e0000\n        /* \"#utility.yul\":11307:11308   */\n      0x00\n        /* \"#utility.yul\":11299:11305   */\n      dup3\n        /* \"#utility.yul\":11295:11309   */\n      add\n        /* \"#utility.yul\":11288:11344   */\n      mstore\n        /* \"#utility.yul\":11171:11351   */\n      pop\n      jump\t// out\n        /* \"#utility.yul\":11357:11723   */\n    tag_140:\n        /* \"#utility.yul\":11499:11502   */\n      0x00\n        /* \"#utility.yul\":11520:11587   */\n      tag_243\n        /* \"#utility.yul\":11584:11586   */\n      0x1e\n        /* \"#utility.yul\":11579:11582   */\n      dup4\n        /* \"#utility.yul\":11520:11587   */\n      tag_125\n      jump\t// in\n    tag_243:\n        /* \"#utility.yul\":11513:11587   */\n      swap2\n      pop\n        /* \"#utility.yul\":11596:11689   */\n      tag_244\n        /* \"#utility.yul\":11685:11688   */\n      dup3\n        /* \"#utility.yul\":11596:11689   */\n      tag_139\n      jump\t// in\n    tag_244:\n        /* \"#utility.yul\":11714:11716   */\n      0x20\n        /* \"#utility.yul\":11709:11712   */\n      dup3\n        /* \"#utility.yul\":11705:11717   */\n      add\n        /* \"#utility.yul\":11698:11717   */\n      swap1\n      pop\n        /* \"#utility.yul\":11357:11723   */\n      swap2\n      swap1\n      pop\n      jump\t// out\n        /* \"#utility.yul\":11729:12148   */\n    tag_95:\n        /* \"#utility.yul\":11895:11899   */\n      0x00\n        /* \"#utility.yul\":11933:11935   */\n      0x20\n        /* \"#utility.yul\":11922:11931   */\n      dup3\n        /* \"#utility.yul\":11918:11936   */\n      add\n        /* \"#utility.yul\":11910:11936   */\n      swap1\n      pop\n        /* \"#utility.yul\":11982:11991   */\n      dup2\n        /* \"#utility.yul\":11976:11980   */\n      dup2\n        /* \"#utility.yul\":11972:11992   */\n      sub\n        /* \"#utility.yul\":11968:11969   */\n      0x00\n        /* \"#utility.yul\":11957:11966   */\n      dup4\n        /* \"#utility.yul\":11953:11970   */\n      add\n        /* \"#utility.yul\":11946:11993   */\n      mstore\n        /* \"#utility.yul\":12010:12141   */\n      tag_246\n        /* \"#utility.yul\":12136:12140   */\n      dup2\n        /* \"#utility.yul\":12010:12141   */\n      tag_140\n      jump\t// in\n    tag_246:\n        /* \"#utility.yul\":12002:12141   */\n      swap1\n      pop\n        /* \"#utility.yul\":11729:12148   */\n      swap2\n      swap1\n      pop\n      jump\t// out\n        /* \"#utility.yul\":12154:12329   */\n    tag_141:\n        /* \"#utility.yul\":12294:12321   */\n      0x466f756e64206c6f6f7020696e2064656c65676174696f6e2e00000000000000\n        /* \"#utility.yul\":12290:12291   */\n      0x00\n        /* \"#utility.yul\":12282:12288   */\n      dup3\n        /* \"#utility.yul\":12278:12292   */\n      add\n        /* \"#utility.yul\":12271:12322   */\n      mstore\n        /* \"#utility.yul\":12154:12329   */\n      pop\n      jump\t// out\n        /* \"#utility.yul\":12335:12701   */\n    tag_142:\n        /* \"#utility.yul\":12477:12480   */\n      0x00\n        /* \"#utility.yul\":12498:12565   */\n      tag_249\n        /* \"#utility.yul\":12562:12564   */\n      0x19\n        /* \"#utility.yul\":12557:12560   */\n      dup4\n        /* \"#utility.yul\":12498:12565   */\n      tag_125\n      jump\t// in\n    tag_249:\n        /* \"#utility.yul\":12491:12565   */\n      swap2\n      pop\n        /* \"#utility.yul\":12574:12667   */\n      tag_250\n        /* \"#utility.yul\":12663:12666   */\n      dup3\n        /* \"#utility.yul\":12574:12667   */\n      tag_141\n      jump\t// in\n    tag_250:\n        /* \"#utility.yul\":12692:12694   */\n      0x20\n        /* \"#utility.yul\":12687:12690   */\n      dup3\n        /* \"#utility.yul\":12683:12695   */\n      add\n        /* \"#utility.yul\":12676:12695   */\n      swap1\n      pop\n        /* \"#utility.yul\":12335:12701   */\n      swap2\n      swap1\n      pop\n      jump\t// out\n        /* \"#utility.yul\":12707:13126   */\n    tag_100:\n        /* \"#utility.yul\":12873:12877   */\n      0x00\n        /* \"#utility.yul\":12911:12913   */\n      0x20\n        /* \"#utility.yul\":12900:12909   */\n      dup3\n        /* \"#utility.yul\":12896:12914   */\n      add\n        /* \"#utility.yul\":12888:12914   */\n      swap1\n      pop\n        /* \"#utility.yul\":12960:12969   */\n      dup2\n        /* \"#utility.yul\":12954:12958   */\n      dup2\n        /* \"#utility.yul\":12950:12970   */\n      sub\n        /* \"#utility.yul\":12946:12947   */\n      0x00\n        /* \"#utility.yul\":12935:12944   */\n      dup4\n        /* \"#utility.yul\":12931:12948   */\n      add\n        /* \"#utility.yul\":12924:12971   */\n      mstore\n        /* \"#utility.yul\":12988:13119   */\n      tag_252\n        /* \"#utility.yul\":13114:13118   */\n      dup2\n        /* \"#utility.yul\":12988:13119   */\n      tag_142\n      jump\t// in\n    tag_252:\n        /* \"#utility.yul\":12980:13119   */\n      swap1\n      pop\n        /* \"#utility.yul\":12707:13126   */\n      swap2\n      swap1\n      pop\n      jump\t// out\n\n    auxdata: 0xa264697066735822122098a7db69661332a5c28e4e22a3b3fffbb21ac5957008f07aa92d4d12d3b4cbf364736f6c634300080f0033\n}\n",
				"bytecode": {
					"linkReferences": {},
					"object": "60806040523480156200001157600080fd5b506040516200154b3803806200154b833981810160405281019062000037919062000342565b336000806101000a81548173ffffffffffffffffffffffffffffffffffffffff021916908373ffffffffffffffffffffffffffffffffffffffff16021790555060018060008060009054906101000a900473ffffffffffffffffffffffffffffffffffffffff1673ffffffffffffffffffffffffffffffffffffffff1673ffffffffffffffffffffffffffffffffffffffff1681526020019081526020016000206000018190555060005b81518110156200017657600260405180604001604052808484815181106200010f576200010e62000393565b5b60200260200101518152602001600081525090806001815401808255809150506001900390600052602060002090600202016000909190919091506000820151816000015560208201518160010155505080806200016d90620003fb565b915050620000e2565b505062000448565b6000604051905090565b600080fd5b600080fd5b600080fd5b6000601f19601f8301169050919050565b7f4e487b7100000000000000000000000000000000000000000000000000000000600052604160045260246000fd5b620001e28262000197565b810181811067ffffffffffffffff82111715620002045762000203620001a8565b5b80604052505050565b6000620002196200017e565b9050620002278282620001d7565b919050565b600067ffffffffffffffff8211156200024a5762000249620001a8565b5b602082029050602081019050919050565b600080fd5b6000819050919050565b620002758162000260565b81146200028157600080fd5b50565b60008151905062000295816200026a565b92915050565b6000620002b2620002ac846200022c565b6200020d565b90508083825260208201905060208402830185811115620002d857620002d76200025b565b5b835b81811015620003055780620002f0888262000284565b845260208401935050602081019050620002da565b5050509392505050565b600082601f83011262000327576200032662000192565b5b8151620003398482602086016200029b565b91505092915050565b6000602082840312156200035b576200035a62000188565b5b600082015167ffffffffffffffff8111156200037c576200037b6200018d565b5b6200038a848285016200030f565b91505092915050565b7f4e487b7100000000000000000000000000000000000000000000000000000000600052603260045260246000fd5b7f4e487b7100000000000000000000000000000000000000000000000000000000600052601160045260246000fd5b6000819050919050565b60006200040882620003f1565b91507fffffffffffffffffffffffffffffffffffffffffffffffffffffffffffffffff82036200043d576200043c620003c2565b5b600182019050919050565b6110f380620004586000396000f3fe608060405234801561001057600080fd5b50600436106100885760003560e01c8063a92284d01161005b578063a92284d014610116578063bf475ec214610149578063d24b995314610167578063f06e9dbf1461018357610088565b806328ddfd971461008d5780633aa0b60f146100ab5780635792febf146100c75780638f023f85146100e5575b600080fd5b61009561019f565b6040516100a29190610a19565b60405180910390f35b6100c560048036038101906100c09190610a97565b6101d3565b005b6100cf61038a565b6040516100dc9190610add565b60405180910390f35b6100ff60048036038101906100fa9190610b24565b610412565b60405161010d929190610b51565b60405180910390f35b610130600480360381019061012b9190610a97565b610446565b6040516101409493929190610ba4565b60405180910390f35b6101516104a3565b60405161015e9190610be9565b60405180910390f35b610181600480360381019061017c9190610b24565b6104c7565b005b61019d60048036038101906101989190610a97565b61060d565b005b600060026101ab61038a565b815481106101bc576101bb610c04565b5b906000526020600020906002020160000154905090565b60008054906101000a900473ffffffffffffffffffffffffffffffffffffffff1673ffffffffffffffffffffffffffffffffffffffff163373ffffffffffffffffffffffffffffffffffffffff1614610261576040517f08c379a000000000000000000000000000000000000000000000000000000000815260040161025890610cb6565b60405180910390fd5b600160008273ffffffffffffffffffffffffffffffffffffffff1673ffffffffffffffffffffffffffffffffffffffff16815260200190815260200160002060010160009054906101000a900460ff16156102f1576040517f08c379a00000000000000000000000000000000000000000000000000000000081526004016102e890610d48565b60405180910390fd5b6000600160008373ffffffffffffffffffffffffffffffffffffffff1673ffffffffffffffffffffffffffffffffffffffff168152602001908152602001600020600001541461034057600080fd5b60018060008373ffffffffffffffffffffffffffffffffffffffff1673ffffffffffffffffffffffffffffffffffffffff1681526020019081526020016000206000018190555050565b6000806000905060005b60028054905081101561040d5781600282815481106103b6576103b5610c04565b5b90600052602060002090600202016001015411156103fa57600281815481106103e2576103e1610c04565b5b90600052602060002090600202016001015491508092505b808061040590610d97565b915050610394565b505090565b6002818154811061042257600080fd5b90600052602060002090600202016000915090508060000154908060010154905082565b60016020528060005260406000206000915090508060000154908060010160009054906101000a900460ff16908060010160019054906101000a900473ffffffffffffffffffffffffffffffffffffffff16908060020154905084565b60008054906101000a900473ffffffffffffffffffffffffffffffffffffffff1681565b6000600160003373ffffffffffffffffffffffffffffffffffffffff1673ffffffffffffffffffffffffffffffffffffffff16815260200190815260200160002090506000816000015403610551576040517f08c379a000000000000000000000000000000000000000000000000000000000815260040161054890610e2b565b60405180910390fd5b8060010160009054906101000a900460ff16156105a3576040517f08c379a000000000000000000000000000000000000000000000000000000000815260040161059a90610e97565b60405180910390fd5b60018160010160006101000a81548160ff0219169083151502179055508181600201819055508060000154600283815481106105e2576105e1610c04565b5b906000526020600020906002020160010160008282546106029190610eb7565b925050819055505050565b6000600160003373ffffffffffffffffffffffffffffffffffffffff1673ffffffffffffffffffffffffffffffffffffffff16815260200190815260200160002090506000816000015403610697576040517f08c379a000000000000000000000000000000000000000000000000000000000815260040161068e90610f59565b60405180910390fd5b8060010160009054906101000a900460ff16156106e9576040517f08c379a00000000000000000000000000000000000000000000000000000000081526004016106e090610fc5565b60405180910390fd5b3373ffffffffffffffffffffffffffffffffffffffff168273ffffffffffffffffffffffffffffffffffffffff1603610757576040517f08c379a000000000000000000000000000000000000000000000000000000000815260040161074e90611031565b60405180910390fd5b5b600073ffffffffffffffffffffffffffffffffffffffff16600160008473ffffffffffffffffffffffffffffffffffffffff1673ffffffffffffffffffffffffffffffffffffffff16815260200190815260200160002060010160019054906101000a900473ffffffffffffffffffffffffffffffffffffffff1673ffffffffffffffffffffffffffffffffffffffff16146108c657600160008373ffffffffffffffffffffffffffffffffffffffff1673ffffffffffffffffffffffffffffffffffffffff16815260200190815260200160002060010160019054906101000a900473ffffffffffffffffffffffffffffffffffffffff1691503373ffffffffffffffffffffffffffffffffffffffff168273ffffffffffffffffffffffffffffffffffffffff16036108c1576040517f08c379a00000000000000000000000000000000000000000000000000000000081526004016108b89061109d565b60405180910390fd5b610758565b6000600160008473ffffffffffffffffffffffffffffffffffffffff1673ffffffffffffffffffffffffffffffffffffffff168152602001908152602001600020905060018160000154101561091b57600080fd5b60018260010160006101000a81548160ff021916908315150217905550828260010160016101000a81548173ffffffffffffffffffffffffffffffffffffffff021916908373ffffffffffffffffffffffffffffffffffffffff1602179055508060010160009054906101000a900460ff16156109db57816000015460028260020154815481106109af576109ae610c04565b5b906000526020600020906002020160010160008282546109cf9190610eb7565b925050819055506109fb565b81600001548160000160008282546109f39190610eb7565b925050819055505b505050565b6000819050919050565b610a1381610a00565b82525050565b6000602082019050610a2e6000830184610a0a565b92915050565b600080fd5b600073ffffffffffffffffffffffffffffffffffffffff82169050919050565b6000610a6482610a39565b9050919050565b610a7481610a59565b8114610a7f57600080fd5b50565b600081359050610a9181610a6b565b92915050565b600060208284031215610aad57610aac610a34565b5b6000610abb84828501610a82565b91505092915050565b6000819050919050565b610ad781610ac4565b82525050565b6000602082019050610af26000830184610ace565b92915050565b610b0181610ac4565b8114610b0c57600080fd5b50565b600081359050610b1e81610af8565b92915050565b600060208284031215610b3a57610b39610a34565b5b6000610b4884828501610b0f565b91505092915050565b6000604082019050610b666000830185610a0a565b610b736020830184610ace565b9392505050565b60008115159050919050565b610b8f81610b7a565b82525050565b610b9e81610a59565b82525050565b6000608082019050610bb96000830187610ace565b610bc66020830186610b86565b610bd36040830185610b95565b610be06060830184610ace565b95945050505050565b6000602082019050610bfe6000830184610b95565b92915050565b7f4e487b7100000000000000000000000000000000000000000000000000000000600052603260045260246000fd5b600082825260208201905092915050565b7f536f6c6f2061646d696e566f746163696f6e2070756564652064617220656c2060008201527f6465726563686f20646520696e64696365566f746f2e00000000000000000000602082015250565b6000610ca0603683610c33565b9150610cab82610c44565b604082019050919050565b60006020820190508181036000830152610ccf81610c93565b9050919050565b7f456c20766f74616e746520796120766f746f20286973566f746f203d2074727560008201527f65292e0000000000000000000000000000000000000000000000000000000000602082015250565b6000610d32602383610c33565b9150610d3d82610cd6565b604082019050919050565b60006020820190508181036000830152610d6181610d25565b9050919050565b7f4e487b7100000000000000000000000000000000000000000000000000000000600052601160045260246000fd5b6000610da282610ac4565b91507fffffffffffffffffffffffffffffffffffffffffffffffffffffffffffffffff8203610dd457610dd3610d68565b5b600182019050919050565b7f486173206e6f20726967687420746f20696e64696365566f746f000000000000600082015250565b6000610e15601a83610c33565b9150610e2082610ddf565b602082019050919050565b60006020820190508181036000830152610e4481610e08565b9050919050565b7f416c7265616479206973566f746f2e0000000000000000000000000000000000600082015250565b6000610e81600f83610c33565b9150610e8c82610e4b565b602082019050919050565b60006020820190508181036000830152610eb081610e74565b9050919050565b6000610ec282610ac4565b9150610ecd83610ac4565b9250827fffffffffffffffffffffffffffffffffffffffffffffffffffffffffffffffff03821115610f0257610f01610d68565b5b828201905092915050565b7f596f752068617665206e6f20726967687420746f20696e64696365566f746f00600082015250565b6000610f43601f83610c33565b9150610f4e82610f0d565b602082019050919050565b60006020820190508181036000830152610f7281610f36565b9050919050565b7f596f7520616c7265616479206973566f746f2e00000000000000000000000000600082015250565b6000610faf601383610c33565b9150610fba82610f79565b602082019050919050565b60006020820190508181036000830152610fde81610fa2565b9050919050565b7f53656c662d64656c65676174696f6e20697320646973616c6c6f7765642e0000600082015250565b600061101b601e83610c33565b915061102682610fe5565b602082019050919050565b6000602082019050818103600083015261104a8161100e565b9050919050565b7f466f756e64206c6f6f7020696e2064656c65676174696f6e2e00000000000000600082015250565b6000611087601983610c33565b915061109282611051565b602082019050919050565b600060208201905081810360008301526110b68161107a565b905091905056fea264697066735822122098a7db69661332a5c28e4e22a3b3fffbb21ac5957008f07aa92d4d12d3b4cbf364736f6c634300080f0033",
					"opcodes": "PUSH1 0x80 PUSH1 0x40 MSTORE CALLVALUE DUP1 ISZERO PUSH3 0x11 JUMPI PUSH1 0x0 DUP1 REVERT JUMPDEST POP PUSH1 0x40 MLOAD PUSH3 0x154B CODESIZE SUB DUP1 PUSH3 0x154B DUP4 CODECOPY DUP2 DUP2 ADD PUSH1 0x40 MSTORE DUP2 ADD SWAP1 PUSH3 0x37 SWAP2 SWAP1 PUSH3 0x342 JUMP JUMPDEST CALLER PUSH1 0x0 DUP1 PUSH2 0x100 EXP DUP2 SLOAD DUP2 PUSH20 0xFFFFFFFFFFFFFFFFFFFFFFFFFFFFFFFFFFFFFFFF MUL NOT AND SWAP1 DUP4 PUSH20 0xFFFFFFFFFFFFFFFFFFFFFFFFFFFFFFFFFFFFFFFF AND MUL OR SWAP1 SSTORE POP PUSH1 0x1 DUP1 PUSH1 0x0 DUP1 PUSH1 0x0 SWAP1 SLOAD SWAP1 PUSH2 0x100 EXP SWAP1 DIV PUSH20 0xFFFFFFFFFFFFFFFFFFFFFFFFFFFFFFFFFFFFFFFF AND PUSH20 0xFFFFFFFFFFFFFFFFFFFFFFFFFFFFFFFFFFFFFFFF AND PUSH20 0xFFFFFFFFFFFFFFFFFFFFFFFFFFFFFFFFFFFFFFFF AND DUP2 MSTORE PUSH1 0x20 ADD SWAP1 DUP2 MSTORE PUSH1 0x20 ADD PUSH1 0x0 KECCAK256 PUSH1 0x0 ADD DUP2 SWAP1 SSTORE POP PUSH1 0x0 JUMPDEST DUP2 MLOAD DUP2 LT ISZERO PUSH3 0x176 JUMPI PUSH1 0x2 PUSH1 0x40 MLOAD DUP1 PUSH1 0x40 ADD PUSH1 0x40 MSTORE DUP1 DUP5 DUP5 DUP2 MLOAD DUP2 LT PUSH3 0x10F JUMPI PUSH3 0x10E PUSH3 0x393 JUMP JUMPDEST JUMPDEST PUSH1 0x20 MUL PUSH1 0x20 ADD ADD MLOAD DUP2 MSTORE PUSH1 0x20 ADD PUSH1 0x0 DUP2 MSTORE POP SWAP1 DUP1 PUSH1 0x1 DUP2 SLOAD ADD DUP1 DUP3 SSTORE DUP1 SWAP2 POP POP PUSH1 0x1 SWAP1 SUB SWAP1 PUSH1 0x0 MSTORE PUSH1 0x20 PUSH1 0x0 KECCAK256 SWAP1 PUSH1 0x2 MUL ADD PUSH1 0x0 SWAP1 SWAP2 SWAP1 SWAP2 SWAP1 SWAP2 POP PUSH1 0x0 DUP3 ADD MLOAD DUP2 PUSH1 0x0 ADD SSTORE PUSH1 0x20 DUP3 ADD MLOAD DUP2 PUSH1 0x1 ADD SSTORE POP POP DUP1 DUP1 PUSH3 0x16D SWAP1 PUSH3 0x3FB JUMP JUMPDEST SWAP2 POP POP PUSH3 0xE2 JUMP JUMPDEST POP POP PUSH3 0x448 JUMP JUMPDEST PUSH1 0x0 PUSH1 0x40 MLOAD SWAP1 POP SWAP1 JUMP JUMPDEST PUSH1 0x0 DUP1 REVERT JUMPDEST PUSH1 0x0 DUP1 REVERT JUMPDEST PUSH1 0x0 DUP1 REVERT JUMPDEST PUSH1 0x0 PUSH1 0x1F NOT PUSH1 0x1F DUP4 ADD AND SWAP1 POP SWAP2 SWAP1 POP JUMP JUMPDEST PUSH32 0x4E487B7100000000000000000000000000000000000000000000000000000000 PUSH1 0x0 MSTORE PUSH1 0x41 PUSH1 0x4 MSTORE PUSH1 0x24 PUSH1 0x0 REVERT JUMPDEST PUSH3 0x1E2 DUP3 PUSH3 0x197 JUMP JUMPDEST DUP2 ADD DUP2 DUP2 LT PUSH8 0xFFFFFFFFFFFFFFFF DUP3 GT OR ISZERO PUSH3 0x204 JUMPI PUSH3 0x203 PUSH3 0x1A8 JUMP JUMPDEST JUMPDEST DUP1 PUSH1 0x40 MSTORE POP POP POP JUMP JUMPDEST PUSH1 0x0 PUSH3 0x219 PUSH3 0x17E JUMP JUMPDEST SWAP1 POP PUSH3 0x227 DUP3 DUP3 PUSH3 0x1D7 JUMP JUMPDEST SWAP2 SWAP1 POP JUMP JUMPDEST PUSH1 0x0 PUSH8 0xFFFFFFFFFFFFFFFF DUP3 GT ISZERO PUSH3 0x24A JUMPI PUSH3 0x249 PUSH3 0x1A8 JUMP JUMPDEST JUMPDEST PUSH1 0x20 DUP3 MUL SWAP1 POP PUSH1 0x20 DUP2 ADD SWAP1 POP SWAP2 SWAP1 POP JUMP JUMPDEST PUSH1 0x0 DUP1 REVERT JUMPDEST PUSH1 0x0 DUP2 SWAP1 POP SWAP2 SWAP1 POP JUMP JUMPDEST PUSH3 0x275 DUP2 PUSH3 0x260 JUMP JUMPDEST DUP2 EQ PUSH3 0x281 JUMPI PUSH1 0x0 DUP1 REVERT JUMPDEST POP JUMP JUMPDEST PUSH1 0x0 DUP2 MLOAD SWAP1 POP PUSH3 0x295 DUP2 PUSH3 0x26A JUMP JUMPDEST SWAP3 SWAP2 POP POP JUMP JUMPDEST PUSH1 0x0 PUSH3 0x2B2 PUSH3 0x2AC DUP5 PUSH3 0x22C JUMP JUMPDEST PUSH3 0x20D JUMP JUMPDEST SWAP1 POP DUP1 DUP4 DUP3 MSTORE PUSH1 0x20 DUP3 ADD SWAP1 POP PUSH1 0x20 DUP5 MUL DUP4 ADD DUP6 DUP2 GT ISZERO PUSH3 0x2D8 JUMPI PUSH3 0x2D7 PUSH3 0x25B JUMP JUMPDEST JUMPDEST DUP4 JUMPDEST DUP2 DUP2 LT ISZERO PUSH3 0x305 JUMPI DUP1 PUSH3 0x2F0 DUP9 DUP3 PUSH3 0x284 JUMP JUMPDEST DUP5 MSTORE PUSH1 0x20 DUP5 ADD SWAP4 POP POP PUSH1 0x20 DUP2 ADD SWAP1 POP PUSH3 0x2DA JUMP JUMPDEST POP POP POP SWAP4 SWAP3 POP POP POP JUMP JUMPDEST PUSH1 0x0 DUP3 PUSH1 0x1F DUP4 ADD SLT PUSH3 0x327 JUMPI PUSH3 0x326 PUSH3 0x192 JUMP JUMPDEST JUMPDEST DUP2 MLOAD PUSH3 0x339 DUP5 DUP3 PUSH1 0x20 DUP7 ADD PUSH3 0x29B JUMP JUMPDEST SWAP2 POP POP SWAP3 SWAP2 POP POP JUMP JUMPDEST PUSH1 0x0 PUSH1 0x20 DUP3 DUP5 SUB SLT ISZERO PUSH3 0x35B JUMPI PUSH3 0x35A PUSH3 0x188 JUMP JUMPDEST JUMPDEST PUSH1 0x0 DUP3 ADD MLOAD PUSH8 0xFFFFFFFFFFFFFFFF DUP2 GT ISZERO PUSH3 0x37C JUMPI PUSH3 0x37B PUSH3 0x18D JUMP JUMPDEST JUMPDEST PUSH3 0x38A DUP5 DUP3 DUP6 ADD PUSH3 0x30F JUMP JUMPDEST SWAP2 POP POP SWAP3 SWAP2 POP POP JUMP JUMPDEST PUSH32 0x4E487B7100000000000000000000000000000000000000000000000000000000 PUSH1 0x0 MSTORE PUSH1 0x32 PUSH1 0x4 MSTORE PUSH1 0x24 PUSH1 0x0 REVERT JUMPDEST PUSH32 0x4E487B7100000000000000000000000000000000000000000000000000000000 PUSH1 0x0 MSTORE PUSH1 0x11 PUSH1 0x4 MSTORE PUSH1 0x24 PUSH1 0x0 REVERT JUMPDEST PUSH1 0x0 DUP2 SWAP1 POP SWAP2 SWAP1 POP JUMP JUMPDEST PUSH1 0x0 PUSH3 0x408 DUP3 PUSH3 0x3F1 JUMP JUMPDEST SWAP2 POP PUSH32 0xFFFFFFFFFFFFFFFFFFFFFFFFFFFFFFFFFFFFFFFFFFFFFFFFFFFFFFFFFFFFFFFF DUP3 SUB PUSH3 0x43D JUMPI PUSH3 0x43C PUSH3 0x3C2 JUMP JUMPDEST JUMPDEST PUSH1 0x1 DUP3 ADD SWAP1 POP SWAP2 SWAP1 POP JUMP JUMPDEST PUSH2 0x10F3 DUP1 PUSH3 0x458 PUSH1 0x0 CODECOPY PUSH1 0x0 RETURN INVALID PUSH1 0x80 PUSH1 0x40 MSTORE CALLVALUE DUP1 ISZERO PUSH2 0x10 JUMPI PUSH1 0x0 DUP1 REVERT JUMPDEST POP PUSH1 0x4 CALLDATASIZE LT PUSH2 0x88 JUMPI PUSH1 0x0 CALLDATALOAD PUSH1 0xE0 SHR DUP1 PUSH4 0xA92284D0 GT PUSH2 0x5B JUMPI DUP1 PUSH4 0xA92284D0 EQ PUSH2 0x116 JUMPI DUP1 PUSH4 0xBF475EC2 EQ PUSH2 0x149 JUMPI DUP1 PUSH4 0xD24B9953 EQ PUSH2 0x167 JUMPI DUP1 PUSH4 0xF06E9DBF EQ PUSH2 0x183 JUMPI PUSH2 0x88 JUMP JUMPDEST DUP1 PUSH4 0x28DDFD97 EQ PUSH2 0x8D JUMPI DUP1 PUSH4 0x3AA0B60F EQ PUSH2 0xAB JUMPI DUP1 PUSH4 0x5792FEBF EQ PUSH2 0xC7 JUMPI DUP1 PUSH4 0x8F023F85 EQ PUSH2 0xE5 JUMPI JUMPDEST PUSH1 0x0 DUP1 REVERT JUMPDEST PUSH2 0x95 PUSH2 0x19F JUMP JUMPDEST PUSH1 0x40 MLOAD PUSH2 0xA2 SWAP2 SWAP1 PUSH2 0xA19 JUMP JUMPDEST PUSH1 0x40 MLOAD DUP1 SWAP2 SUB SWAP1 RETURN JUMPDEST PUSH2 0xC5 PUSH1 0x4 DUP1 CALLDATASIZE SUB DUP2 ADD SWAP1 PUSH2 0xC0 SWAP2 SWAP1 PUSH2 0xA97 JUMP JUMPDEST PUSH2 0x1D3 JUMP JUMPDEST STOP JUMPDEST PUSH2 0xCF PUSH2 0x38A JUMP JUMPDEST PUSH1 0x40 MLOAD PUSH2 0xDC SWAP2 SWAP1 PUSH2 0xADD JUMP JUMPDEST PUSH1 0x40 MLOAD DUP1 SWAP2 SUB SWAP1 RETURN JUMPDEST PUSH2 0xFF PUSH1 0x4 DUP1 CALLDATASIZE SUB DUP2 ADD SWAP1 PUSH2 0xFA SWAP2 SWAP1 PUSH2 0xB24 JUMP JUMPDEST PUSH2 0x412 JUMP JUMPDEST PUSH1 0x40 MLOAD PUSH2 0x10D SWAP3 SWAP2 SWAP1 PUSH2 0xB51 JUMP JUMPDEST PUSH1 0x40 MLOAD DUP1 SWAP2 SUB SWAP1 RETURN JUMPDEST PUSH2 0x130 PUSH1 0x4 DUP1 CALLDATASIZE SUB DUP2 ADD SWAP1 PUSH2 0x12B SWAP2 SWAP1 PUSH2 0xA97 JUMP JUMPDEST PUSH2 0x446 JUMP JUMPDEST PUSH1 0x40 MLOAD PUSH2 0x140 SWAP5 SWAP4 SWAP3 SWAP2 SWAP1 PUSH2 0xBA4 JUMP JUMPDEST PUSH1 0x40 MLOAD DUP1 SWAP2 SUB SWAP1 RETURN JUMPDEST PUSH2 0x151 PUSH2 0x4A3 JUMP JUMPDEST PUSH1 0x40 MLOAD PUSH2 0x15E SWAP2 SWAP1 PUSH2 0xBE9 JUMP JUMPDEST PUSH1 0x40 MLOAD DUP1 SWAP2 SUB SWAP1 RETURN JUMPDEST PUSH2 0x181 PUSH1 0x4 DUP1 CALLDATASIZE SUB DUP2 ADD SWAP1 PUSH2 0x17C SWAP2 SWAP1 PUSH2 0xB24 JUMP JUMPDEST PUSH2 0x4C7 JUMP JUMPDEST STOP JUMPDEST PUSH2 0x19D PUSH1 0x4 DUP1 CALLDATASIZE SUB DUP2 ADD SWAP1 PUSH2 0x198 SWAP2 SWAP1 PUSH2 0xA97 JUMP JUMPDEST PUSH2 0x60D JUMP JUMPDEST STOP JUMPDEST PUSH1 0x0 PUSH1 0x2 PUSH2 0x1AB PUSH2 0x38A JUMP JUMPDEST DUP2 SLOAD DUP2 LT PUSH2 0x1BC JUMPI PUSH2 0x1BB PUSH2 0xC04 JUMP JUMPDEST JUMPDEST SWAP1 PUSH1 0x0 MSTORE PUSH1 0x20 PUSH1 0x0 KECCAK256 SWAP1 PUSH1 0x2 MUL ADD PUSH1 0x0 ADD SLOAD SWAP1 POP SWAP1 JUMP JUMPDEST PUSH1 0x0 DUP1 SLOAD SWAP1 PUSH2 0x100 EXP SWAP1 DIV PUSH20 0xFFFFFFFFFFFFFFFFFFFFFFFFFFFFFFFFFFFFFFFF AND PUSH20 0xFFFFFFFFFFFFFFFFFFFFFFFFFFFFFFFFFFFFFFFF AND CALLER PUSH20 0xFFFFFFFFFFFFFFFFFFFFFFFFFFFFFFFFFFFFFFFF AND EQ PUSH2 0x261 JUMPI PUSH1 0x40 MLOAD PUSH32 0x8C379A000000000000000000000000000000000000000000000000000000000 DUP2 MSTORE PUSH1 0x4 ADD PUSH2 0x258 SWAP1 PUSH2 0xCB6 JUMP JUMPDEST PUSH1 0x40 MLOAD DUP1 SWAP2 SUB SWAP1 REVERT JUMPDEST PUSH1 0x1 PUSH1 0x0 DUP3 PUSH20 0xFFFFFFFFFFFFFFFFFFFFFFFFFFFFFFFFFFFFFFFF AND PUSH20 0xFFFFFFFFFFFFFFFFFFFFFFFFFFFFFFFFFFFFFFFF AND DUP2 MSTORE PUSH1 0x20 ADD SWAP1 DUP2 MSTORE PUSH1 0x20 ADD PUSH1 0x0 KECCAK256 PUSH1 0x1 ADD PUSH1 0x0 SWAP1 SLOAD SWAP1 PUSH2 0x100 EXP SWAP1 DIV PUSH1 0xFF AND ISZERO PUSH2 0x2F1 JUMPI PUSH1 0x40 MLOAD PUSH32 0x8C379A000000000000000000000000000000000000000000000000000000000 DUP2 MSTORE PUSH1 0x4 ADD PUSH2 0x2E8 SWAP1 PUSH2 0xD48 JUMP JUMPDEST PUSH1 0x40 MLOAD DUP1 SWAP2 SUB SWAP1 REVERT JUMPDEST PUSH1 0x0 PUSH1 0x1 PUSH1 0x0 DUP4 PUSH20 0xFFFFFFFFFFFFFFFFFFFFFFFFFFFFFFFFFFFFFFFF AND PUSH20 0xFFFFFFFFFFFFFFFFFFFFFFFFFFFFFFFFFFFFFFFF AND DUP2 MSTORE PUSH1 0x20 ADD SWAP1 DUP2 MSTORE PUSH1 0x20 ADD PUSH1 0x0 KECCAK256 PUSH1 0x0 ADD SLOAD EQ PUSH2 0x340 JUMPI PUSH1 0x0 DUP1 REVERT JUMPDEST PUSH1 0x1 DUP1 PUSH1 0x0 DUP4 PUSH20 0xFFFFFFFFFFFFFFFFFFFFFFFFFFFFFFFFFFFFFFFF AND PUSH20 0xFFFFFFFFFFFFFFFFFFFFFFFFFFFFFFFFFFFFFFFF AND DUP2 MSTORE PUSH1 0x20 ADD SWAP1 DUP2 MSTORE PUSH1 0x20 ADD PUSH1 0x0 KECCAK256 PUSH1 0x0 ADD DUP2 SWAP1 SSTORE POP POP JUMP JUMPDEST PUSH1 0x0 DUP1 PUSH1 0x0 SWAP1 POP PUSH1 0x0 JUMPDEST PUSH1 0x2 DUP1 SLOAD SWAP1 POP DUP2 LT ISZERO PUSH2 0x40D JUMPI DUP2 PUSH1 0x2 DUP3 DUP2 SLOAD DUP2 LT PUSH2 0x3B6 JUMPI PUSH2 0x3B5 PUSH2 0xC04 JUMP JUMPDEST JUMPDEST SWAP1 PUSH1 0x0 MSTORE PUSH1 0x20 PUSH1 0x0 KECCAK256 SWAP1 PUSH1 0x2 MUL ADD PUSH1 0x1 ADD SLOAD GT ISZERO PUSH2 0x3FA JUMPI PUSH1 0x2 DUP2 DUP2 SLOAD DUP2 LT PUSH2 0x3E2 JUMPI PUSH2 0x3E1 PUSH2 0xC04 JUMP JUMPDEST JUMPDEST SWAP1 PUSH1 0x0 MSTORE PUSH1 0x20 PUSH1 0x0 KECCAK256 SWAP1 PUSH1 0x2 MUL ADD PUSH1 0x1 ADD SLOAD SWAP2 POP DUP1 SWAP3 POP JUMPDEST DUP1 DUP1 PUSH2 0x405 SWAP1 PUSH2 0xD97 JUMP JUMPDEST SWAP2 POP POP PUSH2 0x394 JUMP JUMPDEST POP POP SWAP1 JUMP JUMPDEST PUSH1 0x2 DUP2 DUP2 SLOAD DUP2 LT PUSH2 0x422 JUMPI PUSH1 0x0 DUP1 REVERT JUMPDEST SWAP1 PUSH1 0x0 MSTORE PUSH1 0x20 PUSH1 0x0 KECCAK256 SWAP1 PUSH1 0x2 MUL ADD PUSH1 0x0 SWAP2 POP SWAP1 POP DUP1 PUSH1 0x0 ADD SLOAD SWAP1 DUP1 PUSH1 0x1 ADD SLOAD SWAP1 POP DUP3 JUMP JUMPDEST PUSH1 0x1 PUSH1 0x20 MSTORE DUP1 PUSH1 0x0 MSTORE PUSH1 0x40 PUSH1 0x0 KECCAK256 PUSH1 0x0 SWAP2 POP SWAP1 POP DUP1 PUSH1 0x0 ADD SLOAD SWAP1 DUP1 PUSH1 0x1 ADD PUSH1 0x0 SWAP1 SLOAD SWAP1 PUSH2 0x100 EXP SWAP1 DIV PUSH1 0xFF AND SWAP1 DUP1 PUSH1 0x1 ADD PUSH1 0x1 SWAP1 SLOAD SWAP1 PUSH2 0x100 EXP SWAP1 DIV PUSH20 0xFFFFFFFFFFFFFFFFFFFFFFFFFFFFFFFFFFFFFFFF AND SWAP1 DUP1 PUSH1 0x2 ADD SLOAD SWAP1 POP DUP5 JUMP JUMPDEST PUSH1 0x0 DUP1 SLOAD SWAP1 PUSH2 0x100 EXP SWAP1 DIV PUSH20 0xFFFFFFFFFFFFFFFFFFFFFFFFFFFFFFFFFFFFFFFF AND DUP2 JUMP JUMPDEST PUSH1 0x0 PUSH1 0x1 PUSH1 0x0 CALLER PUSH20 0xFFFFFFFFFFFFFFFFFFFFFFFFFFFFFFFFFFFFFFFF AND PUSH20 0xFFFFFFFFFFFFFFFFFFFFFFFFFFFFFFFFFFFFFFFF AND DUP2 MSTORE PUSH1 0x20 ADD SWAP1 DUP2 MSTORE PUSH1 0x20 ADD PUSH1 0x0 KECCAK256 SWAP1 POP PUSH1 0x0 DUP2 PUSH1 0x0 ADD SLOAD SUB PUSH2 0x551 JUMPI PUSH1 0x40 MLOAD PUSH32 0x8C379A000000000000000000000000000000000000000000000000000000000 DUP2 MSTORE PUSH1 0x4 ADD PUSH2 0x548 SWAP1 PUSH2 0xE2B JUMP JUMPDEST PUSH1 0x40 MLOAD DUP1 SWAP2 SUB SWAP1 REVERT JUMPDEST DUP1 PUSH1 0x1 ADD PUSH1 0x0 SWAP1 SLOAD SWAP1 PUSH2 0x100 EXP SWAP1 DIV PUSH1 0xFF AND ISZERO PUSH2 0x5A3 JUMPI PUSH1 0x40 MLOAD PUSH32 0x8C379A000000000000000000000000000000000000000000000000000000000 DUP2 MSTORE PUSH1 0x4 ADD PUSH2 0x59A SWAP1 PUSH2 0xE97 JUMP JUMPDEST PUSH1 0x40 MLOAD DUP1 SWAP2 SUB SWAP1 REVERT JUMPDEST PUSH1 0x1 DUP2 PUSH1 0x1 ADD PUSH1 0x0 PUSH2 0x100 EXP DUP2 SLOAD DUP2 PUSH1 0xFF MUL NOT AND SWAP1 DUP4 ISZERO ISZERO MUL OR SWAP1 SSTORE POP DUP2 DUP2 PUSH1 0x2 ADD DUP2 SWAP1 SSTORE POP DUP1 PUSH1 0x0 ADD SLOAD PUSH1 0x2 DUP4 DUP2 SLOAD DUP2 LT PUSH2 0x5E2 JUMPI PUSH2 0x5E1 PUSH2 0xC04 JUMP JUMPDEST JUMPDEST SWAP1 PUSH1 0x0 MSTORE PUSH1 0x20 PUSH1 0x0 KECCAK256 SWAP1 PUSH1 0x2 MUL ADD PUSH1 0x1 ADD PUSH1 0x0 DUP3 DUP3 SLOAD PUSH2 0x602 SWAP2 SWAP1 PUSH2 0xEB7 JUMP JUMPDEST SWAP3 POP POP DUP2 SWAP1 SSTORE POP POP POP JUMP JUMPDEST PUSH1 0x0 PUSH1 0x1 PUSH1 0x0 CALLER PUSH20 0xFFFFFFFFFFFFFFFFFFFFFFFFFFFFFFFFFFFFFFFF AND PUSH20 0xFFFFFFFFFFFFFFFFFFFFFFFFFFFFFFFFFFFFFFFF AND DUP2 MSTORE PUSH1 0x20 ADD SWAP1 DUP2 MSTORE PUSH1 0x20 ADD PUSH1 0x0 KECCAK256 SWAP1 POP PUSH1 0x0 DUP2 PUSH1 0x0 ADD SLOAD SUB PUSH2 0x697 JUMPI PUSH1 0x40 MLOAD PUSH32 0x8C379A000000000000000000000000000000000000000000000000000000000 DUP2 MSTORE PUSH1 0x4 ADD PUSH2 0x68E SWAP1 PUSH2 0xF59 JUMP JUMPDEST PUSH1 0x40 MLOAD DUP1 SWAP2 SUB SWAP1 REVERT JUMPDEST DUP1 PUSH1 0x1 ADD PUSH1 0x0 SWAP1 SLOAD SWAP1 PUSH2 0x100 EXP SWAP1 DIV PUSH1 0xFF AND ISZERO PUSH2 0x6E9 JUMPI PUSH1 0x40 MLOAD PUSH32 0x8C379A000000000000000000000000000000000000000000000000000000000 DUP2 MSTORE PUSH1 0x4 ADD PUSH2 0x6E0 SWAP1 PUSH2 0xFC5 JUMP JUMPDEST PUSH1 0x40 MLOAD DUP1 SWAP2 SUB SWAP1 REVERT JUMPDEST CALLER PUSH20 0xFFFFFFFFFFFFFFFFFFFFFFFFFFFFFFFFFFFFFFFF AND DUP3 PUSH20 0xFFFFFFFFFFFFFFFFFFFFFFFFFFFFFFFFFFFFFFFF AND SUB PUSH2 0x757 JUMPI PUSH1 0x40 MLOAD PUSH32 0x8C379A000000000000000000000000000000000000000000000000000000000 DUP2 MSTORE PUSH1 0x4 ADD PUSH2 0x74E SWAP1 PUSH2 0x1031 JUMP JUMPDEST PUSH1 0x40 MLOAD DUP1 SWAP2 SUB SWAP1 REVERT JUMPDEST JUMPDEST PUSH1 0x0 PUSH20 0xFFFFFFFFFFFFFFFFFFFFFFFFFFFFFFFFFFFFFFFF AND PUSH1 0x1 PUSH1 0x0 DUP5 PUSH20 0xFFFFFFFFFFFFFFFFFFFFFFFFFFFFFFFFFFFFFFFF AND PUSH20 0xFFFFFFFFFFFFFFFFFFFFFFFFFFFFFFFFFFFFFFFF AND DUP2 MSTORE PUSH1 0x20 ADD SWAP1 DUP2 MSTORE PUSH1 0x20 ADD PUSH1 0x0 KECCAK256 PUSH1 0x1 ADD PUSH1 0x1 SWAP1 SLOAD SWAP1 PUSH2 0x100 EXP SWAP1 DIV PUSH20 0xFFFFFFFFFFFFFFFFFFFFFFFFFFFFFFFFFFFFFFFF AND PUSH20 0xFFFFFFFFFFFFFFFFFFFFFFFFFFFFFFFFFFFFFFFF AND EQ PUSH2 0x8C6 JUMPI PUSH1 0x1 PUSH1 0x0 DUP4 PUSH20 0xFFFFFFFFFFFFFFFFFFFFFFFFFFFFFFFFFFFFFFFF AND PUSH20 0xFFFFFFFFFFFFFFFFFFFFFFFFFFFFFFFFFFFFFFFF AND DUP2 MSTORE PUSH1 0x20 ADD SWAP1 DUP2 MSTORE PUSH1 0x20 ADD PUSH1 0x0 KECCAK256 PUSH1 0x1 ADD PUSH1 0x1 SWAP1 SLOAD SWAP1 PUSH2 0x100 EXP SWAP1 DIV PUSH20 0xFFFFFFFFFFFFFFFFFFFFFFFFFFFFFFFFFFFFFFFF AND SWAP2 POP CALLER PUSH20 0xFFFFFFFFFFFFFFFFFFFFFFFFFFFFFFFFFFFFFFFF AND DUP3 PUSH20 0xFFFFFFFFFFFFFFFFFFFFFFFFFFFFFFFFFFFFFFFF AND SUB PUSH2 0x8C1 JUMPI PUSH1 0x40 MLOAD PUSH32 0x8C379A000000000000000000000000000000000000000000000000000000000 DUP2 MSTORE PUSH1 0x4 ADD PUSH2 0x8B8 SWAP1 PUSH2 0x109D JUMP JUMPDEST PUSH1 0x40 MLOAD DUP1 SWAP2 SUB SWAP1 REVERT JUMPDEST PUSH2 0x758 JUMP JUMPDEST PUSH1 0x0 PUSH1 0x1 PUSH1 0x0 DUP5 PUSH20 0xFFFFFFFFFFFFFFFFFFFFFFFFFFFFFFFFFFFFFFFF AND PUSH20 0xFFFFFFFFFFFFFFFFFFFFFFFFFFFFFFFFFFFFFFFF AND DUP2 MSTORE PUSH1 0x20 ADD SWAP1 DUP2 MSTORE PUSH1 0x20 ADD PUSH1 0x0 KECCAK256 SWAP1 POP PUSH1 0x1 DUP2 PUSH1 0x0 ADD SLOAD LT ISZERO PUSH2 0x91B JUMPI PUSH1 0x0 DUP1 REVERT JUMPDEST PUSH1 0x1 DUP3 PUSH1 0x1 ADD PUSH1 0x0 PUSH2 0x100 EXP DUP2 SLOAD DUP2 PUSH1 0xFF MUL NOT AND SWAP1 DUP4 ISZERO ISZERO MUL OR SWAP1 SSTORE POP DUP3 DUP3 PUSH1 0x1 ADD PUSH1 0x1 PUSH2 0x100 EXP DUP2 SLOAD DUP2 PUSH20 0xFFFFFFFFFFFFFFFFFFFFFFFFFFFFFFFFFFFFFFFF MUL NOT AND SWAP1 DUP4 PUSH20 0xFFFFFFFFFFFFFFFFFFFFFFFFFFFFFFFFFFFFFFFF AND MUL OR SWAP1 SSTORE POP DUP1 PUSH1 0x1 ADD PUSH1 0x0 SWAP1 SLOAD SWAP1 PUSH2 0x100 EXP SWAP1 DIV PUSH1 0xFF AND ISZERO PUSH2 0x9DB JUMPI DUP2 PUSH1 0x0 ADD SLOAD PUSH1 0x2 DUP3 PUSH1 0x2 ADD SLOAD DUP2 SLOAD DUP2 LT PUSH2 0x9AF JUMPI PUSH2 0x9AE PUSH2 0xC04 JUMP JUMPDEST JUMPDEST SWAP1 PUSH1 0x0 MSTORE PUSH1 0x20 PUSH1 0x0 KECCAK256 SWAP1 PUSH1 0x2 MUL ADD PUSH1 0x1 ADD PUSH1 0x0 DUP3 DUP3 SLOAD PUSH2 0x9CF SWAP2 SWAP1 PUSH2 0xEB7 JUMP JUMPDEST SWAP3 POP POP DUP2 SWAP1 SSTORE POP PUSH2 0x9FB JUMP JUMPDEST DUP2 PUSH1 0x0 ADD SLOAD DUP2 PUSH1 0x0 ADD PUSH1 0x0 DUP3 DUP3 SLOAD PUSH2 0x9F3 SWAP2 SWAP1 PUSH2 0xEB7 JUMP JUMPDEST SWAP3 POP POP DUP2 SWAP1 SSTORE POP JUMPDEST POP POP POP JUMP JUMPDEST PUSH1 0x0 DUP2 SWAP1 POP SWAP2 SWAP1 POP JUMP JUMPDEST PUSH2 0xA13 DUP2 PUSH2 0xA00 JUMP JUMPDEST DUP3 MSTORE POP POP JUMP JUMPDEST PUSH1 0x0 PUSH1 0x20 DUP3 ADD SWAP1 POP PUSH2 0xA2E PUSH1 0x0 DUP4 ADD DUP5 PUSH2 0xA0A JUMP JUMPDEST SWAP3 SWAP2 POP POP JUMP JUMPDEST PUSH1 0x0 DUP1 REVERT JUMPDEST PUSH1 0x0 PUSH20 0xFFFFFFFFFFFFFFFFFFFFFFFFFFFFFFFFFFFFFFFF DUP3 AND SWAP1 POP SWAP2 SWAP1 POP JUMP JUMPDEST PUSH1 0x0 PUSH2 0xA64 DUP3 PUSH2 0xA39 JUMP JUMPDEST SWAP1 POP SWAP2 SWAP1 POP JUMP JUMPDEST PUSH2 0xA74 DUP2 PUSH2 0xA59 JUMP JUMPDEST DUP2 EQ PUSH2 0xA7F JUMPI PUSH1 0x0 DUP1 REVERT JUMPDEST POP JUMP JUMPDEST PUSH1 0x0 DUP2 CALLDATALOAD SWAP1 POP PUSH2 0xA91 DUP2 PUSH2 0xA6B JUMP JUMPDEST SWAP3 SWAP2 POP POP JUMP JUMPDEST PUSH1 0x0 PUSH1 0x20 DUP3 DUP5 SUB SLT ISZERO PUSH2 0xAAD JUMPI PUSH2 0xAAC PUSH2 0xA34 JUMP JUMPDEST JUMPDEST PUSH1 0x0 PUSH2 0xABB DUP5 DUP3 DUP6 ADD PUSH2 0xA82 JUMP JUMPDEST SWAP2 POP POP SWAP3 SWAP2 POP POP JUMP JUMPDEST PUSH1 0x0 DUP2 SWAP1 POP SWAP2 SWAP1 POP JUMP JUMPDEST PUSH2 0xAD7 DUP2 PUSH2 0xAC4 JUMP JUMPDEST DUP3 MSTORE POP POP JUMP JUMPDEST PUSH1 0x0 PUSH1 0x20 DUP3 ADD SWAP1 POP PUSH2 0xAF2 PUSH1 0x0 DUP4 ADD DUP5 PUSH2 0xACE JUMP JUMPDEST SWAP3 SWAP2 POP POP JUMP JUMPDEST PUSH2 0xB01 DUP2 PUSH2 0xAC4 JUMP JUMPDEST DUP2 EQ PUSH2 0xB0C JUMPI PUSH1 0x0 DUP1 REVERT JUMPDEST POP JUMP JUMPDEST PUSH1 0x0 DUP2 CALLDATALOAD SWAP1 POP PUSH2 0xB1E DUP2 PUSH2 0xAF8 JUMP JUMPDEST SWAP3 SWAP2 POP POP JUMP JUMPDEST PUSH1 0x0 PUSH1 0x20 DUP3 DUP5 SUB SLT ISZERO PUSH2 0xB3A JUMPI PUSH2 0xB39 PUSH2 0xA34 JUMP JUMPDEST JUMPDEST PUSH1 0x0 PUSH2 0xB48 DUP5 DUP3 DUP6 ADD PUSH2 0xB0F JUMP JUMPDEST SWAP2 POP POP SWAP3 SWAP2 POP POP JUMP JUMPDEST PUSH1 0x0 PUSH1 0x40 DUP3 ADD SWAP1 POP PUSH2 0xB66 PUSH1 0x0 DUP4 ADD DUP6 PUSH2 0xA0A JUMP JUMPDEST PUSH2 0xB73 PUSH1 0x20 DUP4 ADD DUP5 PUSH2 0xACE JUMP JUMPDEST SWAP4 SWAP3 POP POP POP JUMP JUMPDEST PUSH1 0x0 DUP2 ISZERO ISZERO SWAP1 POP SWAP2 SWAP1 POP JUMP JUMPDEST PUSH2 0xB8F DUP2 PUSH2 0xB7A JUMP JUMPDEST DUP3 MSTORE POP POP JUMP JUMPDEST PUSH2 0xB9E DUP2 PUSH2 0xA59 JUMP JUMPDEST DUP3 MSTORE POP POP JUMP JUMPDEST PUSH1 0x0 PUSH1 0x80 DUP3 ADD SWAP1 POP PUSH2 0xBB9 PUSH1 0x0 DUP4 ADD DUP8 PUSH2 0xACE JUMP JUMPDEST PUSH2 0xBC6 PUSH1 0x20 DUP4 ADD DUP7 PUSH2 0xB86 JUMP JUMPDEST PUSH2 0xBD3 PUSH1 0x40 DUP4 ADD DUP6 PUSH2 0xB95 JUMP JUMPDEST PUSH2 0xBE0 PUSH1 0x60 DUP4 ADD DUP5 PUSH2 0xACE JUMP JUMPDEST SWAP6 SWAP5 POP POP POP POP POP JUMP JUMPDEST PUSH1 0x0 PUSH1 0x20 DUP3 ADD SWAP1 POP PUSH2 0xBFE PUSH1 0x0 DUP4 ADD DUP5 PUSH2 0xB95 JUMP JUMPDEST SWAP3 SWAP2 POP POP JUMP JUMPDEST PUSH32 0x4E487B7100000000000000000000000000000000000000000000000000000000 PUSH1 0x0 MSTORE PUSH1 0x32 PUSH1 0x4 MSTORE PUSH1 0x24 PUSH1 0x0 REVERT JUMPDEST PUSH1 0x0 DUP3 DUP3 MSTORE PUSH1 0x20 DUP3 ADD SWAP1 POP SWAP3 SWAP2 POP POP JUMP JUMPDEST PUSH32 0x536F6C6F2061646D696E566F746163696F6E2070756564652064617220656C20 PUSH1 0x0 DUP3 ADD MSTORE PUSH32 0x6465726563686F20646520696E64696365566F746F2E00000000000000000000 PUSH1 0x20 DUP3 ADD MSTORE POP JUMP JUMPDEST PUSH1 0x0 PUSH2 0xCA0 PUSH1 0x36 DUP4 PUSH2 0xC33 JUMP JUMPDEST SWAP2 POP PUSH2 0xCAB DUP3 PUSH2 0xC44 JUMP JUMPDEST PUSH1 0x40 DUP3 ADD SWAP1 POP SWAP2 SWAP1 POP JUMP JUMPDEST PUSH1 0x0 PUSH1 0x20 DUP3 ADD SWAP1 POP DUP2 DUP2 SUB PUSH1 0x0 DUP4 ADD MSTORE PUSH2 0xCCF DUP2 PUSH2 0xC93 JUMP JUMPDEST SWAP1 POP SWAP2 SWAP1 POP JUMP JUMPDEST PUSH32 0x456C20766F74616E746520796120766F746F20286973566F746F203D20747275 PUSH1 0x0 DUP3 ADD MSTORE PUSH32 0x65292E0000000000000000000000000000000000000000000000000000000000 PUSH1 0x20 DUP3 ADD MSTORE POP JUMP JUMPDEST PUSH1 0x0 PUSH2 0xD32 PUSH1 0x23 DUP4 PUSH2 0xC33 JUMP JUMPDEST SWAP2 POP PUSH2 0xD3D DUP3 PUSH2 0xCD6 JUMP JUMPDEST PUSH1 0x40 DUP3 ADD SWAP1 POP SWAP2 SWAP1 POP JUMP JUMPDEST PUSH1 0x0 PUSH1 0x20 DUP3 ADD SWAP1 POP DUP2 DUP2 SUB PUSH1 0x0 DUP4 ADD MSTORE PUSH2 0xD61 DUP2 PUSH2 0xD25 JUMP JUMPDEST SWAP1 POP SWAP2 SWAP1 POP JUMP JUMPDEST PUSH32 0x4E487B7100000000000000000000000000000000000000000000000000000000 PUSH1 0x0 MSTORE PUSH1 0x11 PUSH1 0x4 MSTORE PUSH1 0x24 PUSH1 0x0 REVERT JUMPDEST PUSH1 0x0 PUSH2 0xDA2 DUP3 PUSH2 0xAC4 JUMP JUMPDEST SWAP2 POP PUSH32 0xFFFFFFFFFFFFFFFFFFFFFFFFFFFFFFFFFFFFFFFFFFFFFFFFFFFFFFFFFFFFFFFF DUP3 SUB PUSH2 0xDD4 JUMPI PUSH2 0xDD3 PUSH2 0xD68 JUMP JUMPDEST JUMPDEST PUSH1 0x1 DUP3 ADD SWAP1 POP SWAP2 SWAP1 POP JUMP JUMPDEST PUSH32 0x486173206E6F20726967687420746F20696E64696365566F746F000000000000 PUSH1 0x0 DUP3 ADD MSTORE POP JUMP JUMPDEST PUSH1 0x0 PUSH2 0xE15 PUSH1 0x1A DUP4 PUSH2 0xC33 JUMP JUMPDEST SWAP2 POP PUSH2 0xE20 DUP3 PUSH2 0xDDF JUMP JUMPDEST PUSH1 0x20 DUP3 ADD SWAP1 POP SWAP2 SWAP1 POP JUMP JUMPDEST PUSH1 0x0 PUSH1 0x20 DUP3 ADD SWAP1 POP DUP2 DUP2 SUB PUSH1 0x0 DUP4 ADD MSTORE PUSH2 0xE44 DUP2 PUSH2 0xE08 JUMP JUMPDEST SWAP1 POP SWAP2 SWAP1 POP JUMP JUMPDEST PUSH32 0x416C7265616479206973566F746F2E0000000000000000000000000000000000 PUSH1 0x0 DUP3 ADD MSTORE POP JUMP JUMPDEST PUSH1 0x0 PUSH2 0xE81 PUSH1 0xF DUP4 PUSH2 0xC33 JUMP JUMPDEST SWAP2 POP PUSH2 0xE8C DUP3 PUSH2 0xE4B JUMP JUMPDEST PUSH1 0x20 DUP3 ADD SWAP1 POP SWAP2 SWAP1 POP JUMP JUMPDEST PUSH1 0x0 PUSH1 0x20 DUP3 ADD SWAP1 POP DUP2 DUP2 SUB PUSH1 0x0 DUP4 ADD MSTORE PUSH2 0xEB0 DUP2 PUSH2 0xE74 JUMP JUMPDEST SWAP1 POP SWAP2 SWAP1 POP JUMP JUMPDEST PUSH1 0x0 PUSH2 0xEC2 DUP3 PUSH2 0xAC4 JUMP JUMPDEST SWAP2 POP PUSH2 0xECD DUP4 PUSH2 0xAC4 JUMP JUMPDEST SWAP3 POP DUP3 PUSH32 0xFFFFFFFFFFFFFFFFFFFFFFFFFFFFFFFFFFFFFFFFFFFFFFFFFFFFFFFFFFFFFFFF SUB DUP3 GT ISZERO PUSH2 0xF02 JUMPI PUSH2 0xF01 PUSH2 0xD68 JUMP JUMPDEST JUMPDEST DUP3 DUP3 ADD SWAP1 POP SWAP3 SWAP2 POP POP JUMP JUMPDEST PUSH32 0x596F752068617665206E6F20726967687420746F20696E64696365566F746F00 PUSH1 0x0 DUP3 ADD MSTORE POP JUMP JUMPDEST PUSH1 0x0 PUSH2 0xF43 PUSH1 0x1F DUP4 PUSH2 0xC33 JUMP JUMPDEST SWAP2 POP PUSH2 0xF4E DUP3 PUSH2 0xF0D JUMP JUMPDEST PUSH1 0x20 DUP3 ADD SWAP1 POP SWAP2 SWAP1 POP JUMP JUMPDEST PUSH1 0x0 PUSH1 0x20 DUP3 ADD SWAP1 POP DUP2 DUP2 SUB PUSH1 0x0 DUP4 ADD MSTORE PUSH2 0xF72 DUP2 PUSH2 0xF36 JUMP JUMPDEST SWAP1 POP SWAP2 SWAP1 POP JUMP JUMPDEST PUSH32 0x596F7520616C7265616479206973566F746F2E00000000000000000000000000 PUSH1 0x0 DUP3 ADD MSTORE POP JUMP JUMPDEST PUSH1 0x0 PUSH2 0xFAF PUSH1 0x13 DUP4 PUSH2 0xC33 JUMP JUMPDEST SWAP2 POP PUSH2 0xFBA DUP3 PUSH2 0xF79 JUMP JUMPDEST PUSH1 0x20 DUP3 ADD SWAP1 POP SWAP2 SWAP1 POP JUMP JUMPDEST PUSH1 0x0 PUSH1 0x20 DUP3 ADD SWAP1 POP DUP2 DUP2 SUB PUSH1 0x0 DUP4 ADD MSTORE PUSH2 0xFDE DUP2 PUSH2 0xFA2 JUMP JUMPDEST SWAP1 POP SWAP2 SWAP1 POP JUMP JUMPDEST PUSH32 0x53656C662D64656C65676174696F6E20697320646973616C6C6F7765642E0000 PUSH1 0x0 DUP3 ADD MSTORE POP JUMP JUMPDEST PUSH1 0x0 PUSH2 0x101B PUSH1 0x1E DUP4 PUSH2 0xC33 JUMP JUMPDEST SWAP2 POP PUSH2 0x1026 DUP3 PUSH2 0xFE5 JUMP JUMPDEST PUSH1 0x20 DUP3 ADD SWAP1 POP SWAP2 SWAP1 POP JUMP JUMPDEST PUSH1 0x0 PUSH1 0x20 DUP3 ADD SWAP1 POP DUP2 DUP2 SUB PUSH1 0x0 DUP4 ADD MSTORE PUSH2 0x104A DUP2 PUSH2 0x100E JUMP JUMPDEST SWAP1 POP SWAP2 SWAP1 POP JUMP JUMPDEST PUSH32 0x466F756E64206C6F6F7020696E2064656C65676174696F6E2E00000000000000 PUSH1 0x0 DUP3 ADD MSTORE POP JUMP JUMPDEST PUSH1 0x0 PUSH2 0x1087 PUSH1 0x19 DUP4 PUSH2 0xC33 JUMP JUMPDEST SWAP2 POP PUSH2 0x1092 DUP3 PUSH2 0x1051 JUMP JUMPDEST PUSH1 0x20 DUP3 ADD SWAP1 POP SWAP2 SWAP1 POP JUMP JUMPDEST PUSH1 0x0 PUSH1 0x20 DUP3 ADD SWAP1 POP DUP2 DUP2 SUB PUSH1 0x0 DUP4 ADD MSTORE PUSH2 0x10B6 DUP2 PUSH2 0x107A JUMP JUMPDEST SWAP1 POP SWAP2 SWAP1 POP JUMP INVALID LOG2 PUSH5 0x6970667358 0x22 SLT KECCAK256 SWAP9 0xA7 0xDB PUSH10 0x661332A5C28E4E22A3B3 SELFDESTRUCT 0xFB 0xB2 BYTE 0xC5 SWAP6 PUSH17 0x8F07AA92D4D12D3B4CBF364736F6C6343 STOP ADDMOD 0xF STOP CALLER "
				},
				"gasEstimates": {
					"creation": {
						"codeDepositCost": "867800",
						"executionCost": "infinite",
						"totalCost": "infinite"
					},
					"external": {
						"Votar(uint256)": "infinite",
						"adminVotacion()": "2533",
						"candidatoGanador()": "infinite",
						"candidatos(uint256)": "infinite",
						"darDerechoAVotar(address)": "29326",
						"delegado(address)": "infinite",
						"nomCandidatoGanador()": "infinite",
						"votantes(address)": "infinite"
					}
				},
				"methodIdentifiers": {
					"Votar(uint256)": "d24b9953",
					"adminVotacion()": "bf475ec2",
					"candidatoGanador()": "5792febf",
					"candidatos(uint256)": "8f023f85",
					"darDerechoAVotar(address)": "3aa0b60f",
					"delegado(address)": "f06e9dbf",
					"nomCandidatoGanador()": "28ddfd97",
					"votantes(address)": "a92284d0"
				}
			},
			"storageLayout": {
				"storage": [
					{
						"astId": 18,
						"contract": "VotacionUD/votacionUD.sol:sistemaVotacion",
						"label": "adminVotacion",
						"offset": 0,
						"slot": "0",
						"type": "t_address"
					},
					{
						"astId": 23,
						"contract": "VotacionUD/votacionUD.sol:sistemaVotacion",
						"label": "votantes",
						"offset": 0,
						"slot": "1",
						"type": "t_mapping(t_address,t_struct(Votante)11_storage)"
					},
					{
						"astId": 27,
						"contract": "VotacionUD/votacionUD.sol:sistemaVotacion",
						"label": "candidatos",
						"offset": 0,
						"slot": "2",
						"type": "t_array(t_struct(Candidato)16_storage)dyn_storage"
					}
				],
				"types": {
					"t_address": {
						"encoding": "inplace",
						"label": "address",
						"numberOfBytes": "20"
					},
					"t_array(t_struct(Candidato)16_storage)dyn_storage": {
						"base": "t_struct(Candidato)16_storage",
						"encoding": "dynamic_array",
						"label": "struct sistemaVotacion.Candidato[]",
						"numberOfBytes": "32"
					},
					"t_bool": {
						"encoding": "inplace",
						"label": "bool",
						"numberOfBytes": "1"
					},
					"t_bytes32": {
						"encoding": "inplace",
						"label": "bytes32",
						"numberOfBytes": "32"
					},
					"t_mapping(t_address,t_struct(Votante)11_storage)": {
						"encoding": "mapping",
						"key": "t_address",
						"label": "mapping(address => struct sistemaVotacion.Votante)",
						"numberOfBytes": "32",
						"value": "t_struct(Votante)11_storage"
					},
					"t_struct(Candidato)16_storage": {
						"encoding": "inplace",
						"label": "struct sistemaVotacion.Candidato",
						"members": [
							{
								"astId": 13,
								"contract": "VotacionUD/votacionUD.sol:sistemaVotacion",
								"label": "nombreCandidato",
								"offset": 0,
								"slot": "0",
								"type": "t_bytes32"
							},
							{
								"astId": 15,
								"contract": "VotacionUD/votacionUD.sol:sistemaVotacion",
								"label": "contadorVotos",
								"offset": 0,
								"slot": "1",
								"type": "t_uint256"
							}
						],
						"numberOfBytes": "64"
					},
					"t_struct(Votante)11_storage": {
						"encoding": "inplace",
						"label": "struct sistemaVotacion.Votante",
						"members": [
							{
								"astId": 4,
								"contract": "VotacionUD/votacionUD.sol:sistemaVotacion",
								"label": "pesoVoto",
								"offset": 0,
								"slot": "0",
								"type": "t_uint256"
							},
							{
								"astId": 6,
								"contract": "VotacionUD/votacionUD.sol:sistemaVotacion",
								"label": "isVoto",
								"offset": 0,
								"slot": "1",
								"type": "t_bool"
							},
							{
								"astId": 8,
								"contract": "VotacionUD/votacionUD.sol:sistemaVotacion",
								"label": "delegado",
								"offset": 1,
								"slot": "1",
								"type": "t_address"
							},
							{
								"astId": 10,
								"contract": "VotacionUD/votacionUD.sol:sistemaVotacion",
								"label": "indiceVoto",
								"offset": 0,
								"slot": "2",
								"type": "t_uint256"
							}
						],
						"numberOfBytes": "96"
					},
					"t_uint256": {
						"encoding": "inplace",
						"label": "uint256",
						"numberOfBytes": "32"
					}
				}
			},
			"userdoc": {
				"kind": "user",
				"methods": {
					"Votar(uint256)": {
						"notice": "Suma un voto al candidato seleccionado"
					},
					"constructor": {
						"notice": "A침ade las direcciones de los candidatos del input a un array de candidatos."
					},
					"delegado(address)": {
						"notice": "Delegate your indiceVoto to the voter `to`."
					}
				},
				"version": 1
			}
		}
	}
}